:020000040800F2
:20000000C823002051010008B5280008A12400085D0100085F010008610100080000000091
:2000200000000000000000000000000011320008F90A000800000000EB2C00087932000898
:200040006B0100086B0100086B0100082B2D00086B0100086B0100086B0100086B01000814
:200060006B0100086B0100086B0100086B0100086B0100086B0100086B0100086B010008E0
:200080006B0100086B0100086B0100086B0100086B0100086B0100086B0100086B010008C0
:2000A0006B0100086B0100086B0100086B0100086B0100086B0100086B0100086B010008A0
:2000C0006B0100086B0100086B0100086B010008534500086B0100086B0100086B01000854
:2000E0006B0100086B0100086B0100086B010008E7240008EF2400086B0100086B0100081A
:200100006B0100086B0100086B0100086B0100086B0100086B0100086B0100086B0100083F
:200120006B0100086B010008570A00086B0100086B0100086B0100086B010008DFF80CD0EB
:2001400000F096F8004800478D530008C82300200648804706480047FEE7FEE7FEE7FEE761
:20016000FEE7FEE7FEE7FEE7FEE7FEE7453300083D0100082DE9F05F0546002092469B46D2
:2001800088460646814640241BE0284641464746224600F05CF853465A46C01A914110D329
:2001A00011461846224600F043F82D1A67EB01084F4622460120002100F03AF817EB0009E9
:2001C0004E41201EA4F10104DFDC484631462A464346BDE8F09F10B540EA01040346A407E3
:2001E00003D009E010C9121F10C3042AFAD203E011F8014B03F8014B521EF9D210BDD2B261
:2002000001E000F8012B491EFBD270470022F6E710B513460A4604461946FFF7F0FF20468D
:2002200010BD421C10F8011B0029FBD1801A7047202A04DB203A00FA02F100207047914011
:20024000C2F1200320FA03F3194390407047202A04DB203A21FA02F00021704721FA02F35D
:20026000D040C2F1200291400843194670470000064C074D06E0E06840F0010394E80700DC
:2002800098471034AC42F6D3FFF75CFFD85700080858000870B58C1810F8015B15F0070358
:2002A00001D110F8013B2A1106D110F8012B03E010F8016B01F8016B5B1EF9D12B0705D4D8
:2002C0000023521E0DD401F8013BFAE710F8013BCB1A921C03E013F8015B01F8015B521EAE
:2002E000F9D5A142D8D3002070BD704700B587B01C2205496846FFF76EFF03F069F9684612
:2003000002F088FE07B000BD0456000810B500F005FD00F00FFD4FF48030064909680143E5
:20032000044A116000BF00F0D7FB00F005F8FFF7DCFF10BD90080058F0B585B01421684645
:20034000FFF764FF002500260027002427E0344800EBC400807900B3314850F83400B0F13A
:20036000904F06D02F49084448B1B0F5806F12D10BE02B4800EBC400808805430CE02848DB
:2003800000EBC4008088064306E0254800EBC4008088074300E000BF00BF601CC4B2222C6B
:2003A000D5DB0020029001200190032003908DB10095012002F02CF9012002F06FF969463E
:2003C0004FF0904000F08EFE002229464FF0904000F063FF8EB10096022002F019F9022083
:2003E00002F05CF969460F48404200F07BFE002231460C48404200F050FF7FB1009704202C
:2004000002F006F9042002F049F96946064800F069FE00223946044800F03FFF05B0F0BDC2
:20042000F454000800FCFFB70008004810B502F0F1FF0749002001F09BFDFFF767FF01214C
:20044000084604F095F802F0D5F904F0F3FD10BD80020020704770B50446606800F10B05CB
:200460002888B0F5124F04D1A81C00F005F8207000E000BF00BF70BD70B50546012000F0A4
:200480006DF9287890B9012670070078022804D100207107087004F043FAFFF727FF00217A
:2004A000012004F065F800F03BF836E000BF002002F0DAFD0446FF2C01D104F031FA44B18E
:2004C000012000F05BF903E00121002001F020F8FAE74FF00050007802280ED100204FF039
:2004E0000051087002F0D0FD012000F047F903E00121002001F00CF8FAE702200107087086
:200500000021084602F094FD012000F037F903E00121002000F0FCFFFAE7304670BD000014
:2005200010B58EB030222A4902A8FFF754FE00F0EFF90121022004F01BF8264A002101202C
:2005400004F052F802A802F057FD00F06FF902F0DBFD062004F0DAFC00BF4FF400401E49B2
:20056000086100BF00F0CAFA00F02AF9044660791A49087220794872E0788872A078C87295
:20058000607808732078401C487360798DF8050020798DF80400E0788DF80300A0788DF857
:2005A000020060788DF801002078401CC0B28DF800006A460621002004F003FD084B002290
:2005C0000849104601F094FC00F00EF80EB010BD545600082D520008004000581F00002062
:2005E000510A00081800002000B587B00020039004900590069009480D2100221346CDE952
:2006000000210290A0228021002004F086FA04490E2004F011FB07B000BD0000465600089D
:200620001F00002070B5054615B1012D0AD104E00124204603F0C4FF05E00124204603F0B4
:20064000E9FF00E000BF00BF70BD70B504462546696801F1080002F095FD064616B10120CA
:20066000287001E00020287070BD704700B585B014216846FFF7CAFD012001F0E5FF0820BD
:20068000009001200190002002900220039069464FF0904000F026FD012208214FF0904085
:2006A00000F0FBFD012001F0CFFF4FF40040009001200190002002900220039069464FF058
:2006C000904000F00FFD00224FF400414FF0904000F0E3FD012001F0B7FF1120009001201F
:2006E0000190002002900220039069464FF0904000F0F8FC012211214FF0904000F0CDFD42
:2007000005B000BD10B586B00446142101A8FFF77DFD022001F098FF102001F095FF0D4820
:2007200030F814000190012002900020039002200490094951F8240001A900F0D3FC054A59
:2007400032F81410044A52F82400012200F0A5FD06B010BD825600083400002010B5044614
:20076000044A32F81410044A52F82400012200F094FD10BD825600083400002010B504466D
:20078000044A32F81410044A52F82400002200F084FD10BD825600083400002010B504465E
:2007A000044A32F81410044A52F8240000F06EFD10BD0000825600083400002070470000CE
:2007C0002DE9F04100BF164800680646701CE0B100BF1348001D00686FF07F4101EA102803
:2007E00000BF00BF0E48001D077800BF0D490E70300A4870300C88700846C77081F804804E
:200800004FEA182048710D4607E0002002F044FA04460CB1254600E0034D2846BDE8F081FE
:200820008075FF1F1900002020560008F0B58BB00020059004F07AFCFFF7C2FF07463A466B
:200840000621002004F0BDFB4EF66E50079000BF29480068069006AA06212E2004F0B1FB19
:20086000264A1021182004F0ACFB254A1021082004F0A7FB1821012004F074FB04F0DFFA1C
:20088000002444F00104002C18DD1EA508A809A90AAB0C22CDE900100021204604F0A7F8F2
:2008A0002846FFF7BEFCC6B2334600220095BDF82410BDF8280004F0E7FA00BF05A8022346
:2008C00000220090BDF82010BDF8280004F0DCFA002004F085F900200C491023CDE90130B9
:2008E000CDE90310082000231A4601210090084604F0C6F80BB0F0BD8075FF1F26560008D3
:2009000036560008424C45636F72650007B201001CB504480090044801906946034804F095
:20092000E1FB1CBD24000320250600084B06000810B500BF19480068C0F3007028B900BF1F
:2009400016480068C0F3406028B34FF00050007828B900F027F810B101F026FE1DE04FF09A
:200960000050007850B900F01DF838B901204107087007204870FF2088700EE04FF000505C
:200980000078012809D04FF000500078022804D001F01CFE01E001F019FE10BD940000582B
:2009A0007047000010B50D4B19680D4BD3F88030DBB24FF0006404EB03331A1FB1F1006F70
:2009C00001D3914201D9002006E0064C0B68A34201D0002000E0012010BD0000407100086E
:2009E00000400058298A449430B50446039D21600020E06020616061A061626023812577DF
:200A000005F0020020B1208910B14FF0FF3030BD0020FCE710B5044654B90B48006818B1A6
:200A2000002009490968884700200849087009E00120064908700448006818B10120024961
:200A40000968884710BD00005C000020EC00002003F086FF704710B5002001F0E3FC10BD50
:200A60000F4B02689A4206D2426C92080D4B03EB8202826406E0426C92080A4B1C3303EB46
:200A8000820282640278083A1423B2FBF3F1054A8032C26401F01C0301229A400265704716
:200AA000080402400008024001794A1E064B03EB82024265044A403282654A1E02F003034B
:200AC00001229A40C26570470009024010B5002001F0B6FC10BD000008B5FFF7F7FF0220D0
:200AE0000023C202024900900248FFF77DFF08BD3803002018030020704700001FB5134837
:200B00000068C0B2441E022000900007407801900198062805D200204FF00051087003F0DE
:200B20001FFF4FF0005080780290DDE901010844A04202D90198201A029000F0BBFA03A9F7
:200B4000684600F02DFA00F069FA1FBD80400058704700000348406940F2FA71884301492C
:200B600048617047004000581E48006800F40070B0F5007F16D11B48006820F4007019498F
:200B8000086000BF0846006840F4006008600846006820F40060086000BF0846006840F441
:200BA000007008600F48006800F48060B0F5806F16D10C48006820F480600A49086000BF25
:200BC0000846006840F4805008600846006820F48050086000BF0846006840F48060086000
:200BE00070470000004000580649496921F4FF61022202EBC00242F480321143014A516124
:200C0000704700000040005810B50849496941F00101064C6161026000BF00BF00BFBFF325
:200C20006F8F00BF00BF00BF436010BD00400058F0B50246802314460D46104E766946F4BD
:200C400080260E4F7E6100BFEFF31086304672B600BF2E682660241D2D1D5E1EF3B2002B2B
:200C6000F7D100BF054E3669C6F30046002EF9D100BF80F3108800BFF0BD00000040005836
:200C800070B5054600F00EFB064606E000F00AFB801BA84201D3032070BD1E48006900F458
:200CA0008030B0F5803FF1D01A48046904F0010020B100BF01201749086100BF4CF2FA30FA
:200CC000044000BF04F0404030B11248806904F0404108430F49886124F0404018B124F007
:200CE00040400C49086100BF1CB10B4844600120D2E706E000F0D6FA801BA84201D3032037
:200D0000CAE70448006900F48020B0F5802FF1D00020C1E700400058C002002000BF044877
:200D2000406840F001000249486000BF70470000002004E000BF0448406840F0020002493D
:200D4000486000BF70470000002004E070B50446002594F82500022803D00420E0630125A2
:200D600034E02068006820F00E00216808602068006820F0010021680860A06C006820F4E6
:200D80008070A16C086094F8440000F01C0101208840216C4860D4E913104860606D40B1AD
:200DA000606D006820F48070616D0860D4E916104860012084F8250000BF002084F82400F8
:200DC00000BFA06B10B12046A16B8847284670BD70B50446206C05682068066894F844007E
:200DE00000F01C01042088402840E0B106F00400C8B12068006800F0200028B920680068BD
:200E000020F004002168086094F8440000F01C0104208840216C4860206B002856D0204690
:200E2000216B884752E094F8440000F01C0102208840284018B306F0020000B32068006890
:200E400000F0200040B92068006820F00A0021680860012084F8250094F8440000F01C01EF
:200E600002208840216C486000BF002084F8240000BFE06A50B32046E16A884726E094F8B6
:200E8000440000F01C01082088402840F0B106F00800D8B12068006820F00E002168086082
:200EA00094F8440000F01C0101208840216C48600120E06384F8250000BF002084F82400B3
:200EC00000BF606B10B12046616B884770BD000070B504460CB9012070BD2F49206888424D
:200EE0000BD22E492068401A1421B0FBF1F0800060642A48083820640AE027492068401A45
:200F00001421B0FBF1F080006064234808382064022084F825002068056847F6F070854380
:200F2000D4E9020108432169084361690843A1690843E1690843216A0843054320680560C7
:200F40002046FFF78DFDA068B0F5804F01D1002060602079A16C0860D4E91310486060681F
:200F600060B16068042809D82046FFF79DFD0020616D0860D4E91610486003E000206065EC
:200F8000A065E0650020E063012084F82500002084F8240000BF9FE7080402400800024045
:200FA0002DE9F04104460F4600BF1B480078012802D10220BDE8F08101201749087000BFC5
:200FC000002048604FF47A70FFF75AFE0646E6B92068022817D1C01E386065680BE02846AD
:200FE000FFF702FE4FF47A70FFF74AFE06460EB13D6005E06D1CD4E901010844A842EED8BF
:2010000000BFFFF7A7FDFFF7AFFD00BF00200249087000BF3046CDE7C002002000200649F9
:20102000496941F00041044A51611146496901F0004101B901207047004000582DE9F041E0
:201040000646884614461D4600BF18480078012802D10220BDE8F08101201449087000BF39
:20106000002048604FF47A70FFF70AFE0746AFB9012E05D122462B464046FFF7C5FD03E0C9
:2010800021464046FFF7D4FD4FF47A70FFF7F8FD074607484069B0430549486100BF002076
:2010A0000249087000BF3846D4E70000C00200200040005800200849496901F0004151B1A4
:2010C0000649054A9160064991601146496901F0004101B101207047004000582301674514
:2010E000AB89EFCD70B503460022BDE0012696400D6805EA0604002C72D04D68012D08D03F
:201100004D68022D05D04D68112D02D04D68122D13D1986856000325B540A8435600CD6890
:20112000B54028439860586801259540A8430D79C5F30015954028435860D86856000325A8
:20114000B540A84356008D68B5402843D8604D68022D02D04D68122D13D1D60803F1200547
:2011600055F826005507EE0E0F25B540A8435607F60E0D69B5402843D60803F1200545F825
:201180002600186856000325B540A8430D7905F003055600B540284318604D6805F080551B
:2011A000B5F1805F5FD1334D960855F8260095072E0F0F25B540A843B3F1904F01D1002582
:2011C00015E02D4DAB4201D1012510E02B4DAB4201D102250BE02A4DAB4202D1032506E03D
:2011E00041E0284DAB4201D1042500E007259607360FB54028431F4D960845F82600224D47
:201200002868A0434D6805F48035B5F5803F00D120431D4D28602D1D2868A0434D6805F4FE
:201220000035B5F5003F00D12043174D2D1D2860154D803D2868A0434D6805F48015B5F5A7
:20124000801F00D12043104D803D28602D1D2868A0434D6805F40015B5F5001F00D120439C
:20126000094D7C3D2860521C0D68D540002D7FF43DAF70BD08000140000400480008004841
:20128000000C0048001000488008005842690A400AB1816200E0816170470AB1816100E039
:2012A000816270470148006870470000400000200348006803490978084401490860704797
:2012C000400000204800002010B50024032000F0CBF80F2000F008F808B1012401E000F0B9
:2012E0002DF8204610BD000070B50446002511480078D8B100F036F90E4909784FF47A7282
:20130000B2FBF1F1B0FBF1F6304600F050FA58B9102C07D200222146501E00F067F8064842
:20132000046004E0012502E0012500E00125284670BD000048000020440000207047000013
:2013400010B501460846002807DB00F01F0301229A40034B440943F8242000BF10BD000074
:2013600080E200E010B501460846002817DB00F01F0301229A400B4B440943F8242000BFC7
:2013800000BF00BFBFF34F8F00BF00BF00BF00BF00BF00BFBFF36F8F00BF00BF00BF00BF19
:2013A00010BD000080E100E001460846002809DB00F01F0301229A4043099B0003F1E02391
:2013C000C3F8002100BF704710B501460846002807DB00F01F0301229A40034B440943F872
:2013E000242000BF10BD000000E200E02DE9F05F80460D46164603F077FA074639462A46E1
:20140000334601F00700C0F1070ABAF1040F02D94FF0040A01E0C0F1070AD14600F1040AFA
:20142000BAF1070F02D24FF0000A01E0A0F1030AD4464FF0010A0AFA09FAAAF1010A0AEA4A
:20144000020A0AFA0CFA4FF0010B0BFA0CFBABF1010B0BEA030B4AEA0B042146404603F051
:201460004BFABDE8F09F000000BF00F00702064B19684FF6FF031940044B0B4343EA0221DC
:20148000014B196000BF70470CED00E00000FA051248006820F48040104A10601048006819
:2014A000104AB0FBF2F0322200FB02F100E0491E0A481430006800F40070B0F5007F01D164
:2014C0000029F4D105481430006800F40070B0F5007F01D1032070470020FCE70004005892
:2014E0003C00002040420F000348006840F4804001490860704700000004005803480068E0
:2015000040F4807001490860704700000004005870B504460D4654B91048006800F40070EF
:20152000B0F5007F0AD1FFF7B3FF38B170BD0B480068C0F3402008B9FFF7D6FF08480068DC
:2015400020F0040006490860012D01D130BF02E040BF20BF20BF00BFE8E700001404005834
:2015600010ED00E010B500F033F84FF0B041896801F0F0010909034A52F82110B0FBF1F045
:2015800010BD00008856000810B5FFF7EBFF4FF0B041896801F4E061090A034A12F8211001
:2015A00001F01F01C84010BDC856000810B5FFF7D9FF4FF0B041896801F46051C90A034AA5
:2015C00012F8211001F01F01C84010BDC85600082DE9F04101F097F806463EB901F09FF832
:2015E000C0F30310234951F820403FE0042E01D1214C3BE0082E07D101F08BF8012801D1E8
:201600001D4C33E01D4C31E001F092F80746012F0FD0022F02D0032F0AD101E0164D10E0B9
:2016200001F077F8012801D1134D00E0134D08E000BF01F074F8C0F303100E4951F82050D5
:2016400000BF00BF01F07AF868434FF0B041C96801F07001012202EB1111B0FBF1F14FF03D
:20166000B040C06802EB5070B1FBF0F42046BDE8F0810000E85600080024F4000048E8010A
:2016800010B504460CB9012010BD94F8210028B9002084F82000204600F06CF8022084F8E6
:2016A000210000BFCA202168486253202168486200BF204601F01AFB48B100BFFF202168FC
:2016C000486200BF042084F821000120DCE7206880682749084021688860216960680843C6
:2016E000A1690843216889680843216888602168E068086120680169208941EA0040216896
:2017000008612068C06820F080002168C8602068C06C20F003002168C8646169E069084395
:201720002168C96C08432168C8642068806800F0200090B9204600F01EF870B100BFFF20B7
:201740002168486200BF042084F8210000BF002084F8200000BF012096E700BFFF20216897
:20176000486200BF012084F8210000208CE70000BFFF8FFF704770B504462068C06820F07D
:20178000A0002168C860FFF78DFD054607E0FFF789FD401BB0F57A7F01D9032070BD20681F
:2017A000C06800F020000028F1D00020F6E770B504462546681EB0F1807F01D301200FE027
:2017C000681E4FF0E02148610F214FF0FF3003F093F800204FF0E021886107200861002085
:2017E00070BD704770477047704700002DE9F04704462068C569206806682068876840F6F0
:201800000F0005EA0008B8F1000F0FD105F0200060B106F0200010B907F0805030B1E06E2F
:2018200010B12046E16E8847BDE8F087B8F1000F7ED06E48384018B96D4830400028F7D02E
:2018400005F0010058B106F4807040B1012021680862D4F8880040F00100C4F8880005F0DC
:20186000020058B107F0010040B1022021680862D4F8880040F00400C4F8880005F004009A
:2018800058B107F0010040B1042021680862D4F8880040F00200C4F8880005F0080070B157
:2018A00006F0200010B95148384040B1082021680862D4F8880040F00800C4F8880005F463
:2018C000006060B106F0806048B14FF4006021680862D4F8880040F02000C4F88800D4F87E
:2018E0008800002844D005F0200050B106F0200010B907F0805020B1E06E10B12046E16ED3
:201900008847D4F888902068806800F04000402802D009F0280028B3204601F0A5FF2068BB
:20192000806800F04000402818D12068806800E01FE020F0400021688860A06F50B12D48A9
:20194000A16F8863A06FFFF701FA88B1A06F816B88470DE02046FFF747FF09E02046FFF7B5
:2019600043FF05E02046FFF73FFF0020C4F888005AE705F4801050B107F4800038B14FF4D0
:201980008010216808622046FFF72DFF4CE705F0800058B106F0800010B907F4000028B178
:2019A000206F10B12046216F88473DE705F0400030B106F0400018B1204601F069FF33E700
:2019C00005F4000030B106F0804018B12046FFF709FF29E705F0807030B106F0004018B175
:2019E0002046FFF7FEFE1FE700BF1DE701000010200100045138000810B504460CB901200A
:201A000010BDA06900B100E000BFD4F8800028B9002084F87C00204600F02AF82420C4F8E3
:201A200080002068006820F0010021680860204601F040FF012800D1E2E7A06A10B12046AA
:201A400001F050FE2068406820F49040216848602068806820F02A002168886020680068F7
:201A600040F0010021680860204601F0B7FEC7E710B586B00446142101A8FEF7C7FB464921
:201A80002068084400287DD100BF012000F0CEFD4FF4007001900220029000200390032093
:201AA00004900720059001A94FF09040FFF71AFB012000F0BBFD4FF48060019002200290E1
:201AC00000200390032004900720059001A94FF09040FFF707FB012000F0A8FD4FF40060D6
:201AE0000190022002900390032004900720059001A94FF09040FFF7F5FA012027490968FB
:201B000021F0030101434FF0B042C2F8881000BF80031146096E014311661146096E01400F
:201B2000009100BF00BF00220F212420FFF75EFC2420FFF739FC00BF00BF022000F05AFD5A
:201B4000042000F057FD1648164908600F2048601021144881600021C1608021016100214D
:201B600041618161C1610162FFF7B2F900BF0D486067846200BF00220F213A20FFF736FC67
:201B80003A2000E003E0FFF70FFC00BF00E000BF00BF06B010BD000000C8FEBF8800005822
:201BA000440402402002002010B5044606492068084430B90548006810B10448006880474D
:201BC00000E000BF00BF10BD00C8FEBF14000020704770477047000010B5024800688047BE
:201BE00010BD00007000002010B52021024800F03BFDFFF7F1FF10BD000C005810B500F044
:201C00000FF80121014800F02DFD10BD000C005810B50121014800F02CFD10BD000C00588D
:201C200008B507E06946064800F0C4FD0549009809688847024800F0ACFD0028F2D008BD9A
:201C40003C0A03206C00002010B50121014800F022FD10BD000C00584FF400700C490968A6
:201C600001430B4A116000BF00BF0949B43909680143074AB43A116000BF40BF20BF00BFDC
:201C80000448006840F400400249086000BF7047D40800580C04005808B54FF480104FF088
:201CA000B041096D01434FF0B04211651146096D0140009100BF00BF00BF0A48006840F00C
:201CC00001000849086000BF00BF0846006840F48030086000BF2C20FFF766FB2D20FFF725
:201CE00063FB08BD000C005810B50821054800F0BBFC0548006880470821024800F0CBFCD5
:201D000010BD0000000C00583000002010B504460821084800F0B6FC30B10748046008215B
:201D2000044800F0AAFC04E0A0470821014800F0B2FC10BD000C00583000002010B502217D
:201D4000144800F0BBFC40B11248001D01680220884310B100F036F81AE001210D4800F082
:201D6000ADFC40B10B48001D01680120884310B1FFF744FF0CE00821064800F09FFC38B133
:201D80000448001D01680820884308B100F04CF810BD0000000C005810B50221024800F03E
:201DA00063FC00F003F810BD000C005810B50349C968086802490968884710BD000003207B
:201DC0007400002010B500F007F80221014800F049FC10BD000C005808B507E06946064848
:201DE00000F0E8FC0549009809688847024800F0D0FC0028F2D008BD440A0320780000202B
:201E000010B50221014800F034FC10BD000C005810B50221034800F03EFC0221014800F087
:201E20002CFC10BD000C005810B500F007F80821014800F017FC10BD000C005808B506E04C
:201E40006946064800F0B6FC009801F0BFFB034800F09FFC0028F3D008BD0000BC0103203A
:201E600010B50821014800F004FC10BD000C005810B502211D4800F005FC48B91B48001D4B
:201E800001684FF40030884310B1FFF785FF2BE00221164800F0F6FB48B91448001D016810
:201EA0004FF40030884310B1FFF776FF1CE008210E4800F0E7FB48B90C48001D01684FF44D
:201EC0000020884310B1FFF70FFF0DE02021074800F0D8FB40B90548001D01684FF40010F3
:201EE000884308B1FFF780FE10BD0000000C00582DE9F04706460F4690469946002402F000
:201F00004FFD824672B601E0601CC4B2062C07DA04EB4400154901EBC000007B0028F3D1FB
:201F2000062C1CD0012004EB4401104A02EBC1010873504602F04FFD04EB44000B4901EB63
:201F4000C000066104EB440001EBC00080F80D8004EB440041F830903C70002503E0504600
:201F600002F039FD01252846BDE8F087F80000202DE9F04106460F465A48076000BFCA20D7
:201F800058490968096848625320564909680968486200BF5448006840F020005249086060
:201FA0000846006800F00700C0F104004F4908704D480830006800F4FE004FF4FE0191FABB
:201FC000A1F1B1FA81F1C840401C49490870464808300068C0F30E00401C46490880084634
:201FE0000088401E424909784843A0F5A0703F49097820FA01F54FF6FF70854202D33E49CF
:20200000088001E03C490D804FF400203B49096801433A4A116000BF00BF38498031096893
:202020000143364A8032116000BF002E3ED1012033490870801E33490860002408E00020FA
:2020400004EB4401304A02EBC1010873601CC4B2062CF4DB06202D49087022480068006867
:20206000806820F480601F490968096888601D4800680068C06800F0800060F490601949DF
:2020800009680968C8604FF400201C490C3108600320FFF755F9134800680068806840F41B
:2020A0008040104909680968886009E00D4800680068C068C0F3802010B10320FFF784F95D
:2020C00000BFFF20074909680968486200BF002203210846FFF78AF90320FFF765F9BDE85E
:2020E000F0810000040000200828004008000020090000200A0000200C00002000080058D4
:20210000900100208C010020F80000208801002070B505460E461446A04770BD2DE9F04127
:2021200002F03EFC074672B600BFCA2048490968096848625320464909680968486200BFEB
:20214000434800680068806820F4806040490968096888603F48047804EB44003E4901EB4C
:20216000C000007B02284DD104EB440051F8305004EB440001EBC000066938480078002872
:202180003AD004EB440001EBC000407B01281BD10121204602F05AFB384602F01CFC04EB40
:2021A00044002D4A02EBC0004168204600F05AF800BFCA20264909680968486253202449E2
:2021C00009680968486211E0384602F004FC204600F0AEF800BFCA201D490968096848627B
:2021E00053201B4909680968486200BF2A4621463046FFF78DFF21E000F0ACFD384602F0E4
:20220000EAFB1BE000BF124800680068C068C0F380000028F7D00E4800680068C06800F06D
:20222000800060F490600A4909680968C8604FF400200B490860384602F0CDFB00BFFF2048
:20224000034909680968486200BFBDE8F08100000400002088010020F8000020900100203B
:202260000C0800582DE9F04104460D4604EB44002B4901EBC000007B022802D1204600F0ED
:2022800057F802F08DFB804672B60320FFF76AF800BFCA202349096809684862532021498E
:2022A00009680968486200BF022004EB44011C4A02EBC101087304EB4400114601EBC000B7
:2022C000856004EB440001EBC0004560204602F0E9FF06461448077814480078B84202D08E
:2022E00000F038FD0CE004EB44000D4901EBC0008068801B04EB4401094A02EBC1018860F7
:2023000000BFFF20074909680968486200BF0320FFF74AF8404602F05EFBBDE8F081000002
:20232000F800002004000020880100208901002070B5054602F034FB064672B60320FFF7F0
:2023400011F800BFCA20314909680968486253202E4909680968486200BF05EB45002C49E6
:2023600001EBC000007B022842D10021284602F06DFA28480478062C34D127480068C0F364
:20238000802040B100BF214800680068C068C0F380000028F7D11D4800680068806820F438
:2023A00080601A4909680968886000BF174800680068C068C0F380000028F7D01348006815
:2023C0000068C06800F0800060F490600F4909680968C8604FF40020104908600320FEF71B
:2023E000AFFF05E00E480078A04201D000F0B2FC00BFFF20054909680968486200BF032091
:20240000FEF7D2FF304602F0E6FA70BD04000020F800002088010020082800400C080058C0
:202420008901002010B5044624B90449486FFEF7CFFC00E000BF00BF10BD00009401002062
:2024400010B50446C4B900BF0D480E4908604FF4E130486000210B488160C1600161816167
:202460000C2141610021C1610020064988620846FFF7C2FA00BF00E000BF00BF10BD000007
:20248000003801409401002010B504461CB90348FFF7ACF900E000BF00BF10BD9401002064
:2024A00000BF00BF00BF00BF00BFBFF34F8F00BF00BF00BF0948006800F4E060084908430B
:2024C000001D0649086000BF00BF00BFBFF34F8F00BF00BF00BF00BF00BFFDE70CED00E0E3
:2024E0000000FA05704710B5FFF728FC10BD10B5FFF7BEFC10BD00004FF0FF300849096808
:202500008143074A116000BF6FF050000449103109688143024A1032116000BF704700008F
:202520008008005810B5FEF7E9FFFEF7E7FF4FF480701A49096821F4407101434FF0B042FC
:20254000C2F8901000BF00BF1046D0F8900040F400401146C1F8900000BF11481149086007
:202560000F211048816047F6FF71C160FFF788F800BFCA200A4948625320486200BF00200C
:20258000896821F007010143054A916000BF00BFFF201146486200BF10BD0000900000589B
:2025A000002800408002002010B50648064908600146086880F3088800BF08464468A047ED
:2025C00030BF10BD0070000808ED00E010B5FEF7E9F930B100204FF000510870FFF7E4FF74
:2025E00006E001204107087007204870FF20887010BD704708B54FF0B041896C01434FF035
:20260000B04291641146896C0140009100BF08BD08B54FF0B041C96C01434FF0B042D16465
:202620001146C96C0140009100BF08BD08B54FF0B041C96C01434FF0B042D1641146C96C60
:202640000140009100BF08BD08B54FF0B041C96C01434FF0B042D1641146C96C01400091FA
:2026600000BF08BD81607047426842EA01424260704742688A4342607047426822EA014203
:20268000426070470246D0680840884201D1012070470020FCE70A048260704708B50649EF
:2026A000096801434FF0B042C2F84C11024909680140009100BF08BD4C0100580246D069E5
:2026C0000840884201D1012070470020FCE7000002480069C0F3C040704700000040005886
:2026E000024602F1800050F82100034B984201D0012070470020FCE70004008042F4806345
:2027000040F8213070474FF0B040806800F00C0070474FF0B0400068C0F3005070474FF01F
:20272000B041096801F0F000B02800D9B02070474FF0B040C06800F0030070474FF0B040EE
:20274000C068C0F30620704700604060704770B505460C4602F027F9064672B628682060B2
:2027600065602C6020684460304602F037F970BD70B505460C4602F016F9064672B625605B
:20278000686860606C6060680460304602F026F970BD70B5044602F006F9064672B62068A1
:2027A000A04201D1012500E00025304602F016F9284670BD70B504460D4602F0F4F806463C
:2027C00072B620682860206800F004F8304602F005F970BD70B5044602F0E5F8054672B609
:2027E000D4E900010860D4E900104860284602F0F5F870BD10B50020FDF784FF0120FDF753
:2028000081FF0020FDF7BAFF10BD000010B501EB41030E4C04EBC3035A7D062A04D002EBD2
:20282000420304EBC303187500EB4003074C04EBC3035A7500EB400304EBC303197501EBAF
:20284000410304EBC303587510BD0000F800002010B5154B1B7899421AD001EB4103134CC1
:2028600004EBC3031A7D02EB420304EBC303587500EB400304EBC303597500EB400304EB8A
:20288000C3031A7501EB410304EBC30318750AE000EB4003054C04EBC303597501EB410355
:2028A00004EBC303187510BD88010020F8000020704770477047000010B504463CB90848CF
:2028C000006858B1002006490968884706E00448006818B1012002490968884710BD0000FC
:2028E000540000202DE9FC4106464FF00008771C3878FF284AD1BD1CAC1C2888A0F60140D1
:2029000010B116283FD129E0618823484088401C81420ED14FF0010800208DF8040004F19F
:2029200008000090A0798DF80500684600F08EF813E061881848C088401C81420DD14FF078
:20294000010801208DF8040004F108000090A0798DF80500684600F079F815E00E48007AC0
:2029600080B100200C4908724FF0010803208DF8040004F108000090A0798DF80500684665
:2029800000F064F800E000BF00BF00E000BF00BF4046BDE8FC810000A000002000B587B0DB
:2029A000244800F0C1FB24480823012223490090022002F0E3F92048801C00210A220123E4
:2029C000CDE90232CDE9041008460421CDE900101949088804231A4A022102F060F91648C1
:2029E000001D00210A22CDE90212CDE9041008462021CDE90010104908880123114A0221F9
:202A000002F04DF90C48801D01210A22CDE90212CDE9041000200421CDE9001006490888C1
:202A20001423094A022102F03AF900200249087207B000BDE5280008A000002088570008AF
:202A400098570008A8570008B85700082DE9F8430446207920B101283CD003287ED199E034
:202A600020680078092832D2DFE800F0050618313131312930002BE00020794948744FF042
:202A8000006008602068C07808702068807848702068407888700020087419E00120704957
:202AA0004874C00608602068C07808702068807848702068407888700020087408E00120DF
:202AC00000906946022000F0D3F801E000E000BF00BFC2E00026657900BF02216148FFF774
:202AE000FFFD0028F9D1FEF7E5FA34E05C4B1B7CC3F1080223689919594B1F7C0833F8183D
:202B0000FDF769FB00BFFFF7E3FD0028FBD15448D0E902733A4601680120FEF78FFA5048EA
:202B20000068D0E900104E4AD2E9023259405040014310D14A480068083049490860084615
:202B4000007CC0F108002D1A0846007CC0F108000644002008744248007C00E07CE0C0F19D
:202B60000800A842C2D9FEF759FA002202213D48FFF7C4FD6DB122689119394A137C083261
:202B800098182A46FDF727FB3548007C28443449087462E03248007C40B300BF022131481B
:202BA000FFF79EFD0028F9D1FEF784FA0CE000BFFFF78EFD0028FBD12948D0E902733A46E0
:202BC00001680120FEF73AFA25480068D0E90010234AD2E90232594050400143E7D1FEF72E
:202BE0001DFA002202211F48FFF788FD1C48407C18B301282DD100204FF00051087000BF9E
:202C000000BF00BF00BF00BFBFF34F8F00BF00BF00BF1548006800F4E06014490843001D2D
:202C20001149086000BF00BF00BFBFF34F8F00BF00BF00BF00BF00BFFDE7002000F014FA48
:202C4000002000F011FA03E001210020FEF760FCFAE700BF00BF00E000BF00BFBDE8F88306
:202C6000A8020020001400580CED00E00000FA05F8B506460C460120064908720A4600942D
:202C8000918810880123002202F0FEF805462846F8BD0000A00000200146074800E0083871
:202CA000C2798A4202D0054A9042F8D1C2798A4200D0002070470000F873FF1F0070FF1F8C
:202CC00070B504460D461646324629462046FDF782FA70BD70B504460D46164632462946E7
:202CE0002046FDF795FA70BD7047704770B504462068C06800F04000A8B94FF0FF302168A9
:202D0000C860FEF7CFFA054607E0FEF7CBFA401BB0F57A7F01D9032070BD2068C06800F01E
:202D200040000028F1D00020F6E710B5FFF7F6F910BD0000064A126891B2054A126890B2DE
:202D400003E00146024A126890B28142F9D17047282800402DE9F04132480068C0F38020F1
:202D600040B100BF304800680068C068C0F380000028F7D12C4800680068806820F48060F0
:202D800029490968096888602848047804EB4400274901EBC000876800F006F90546AF42A2
:202DA00004D200260120234908700FE0224800882844B84205D22048068800201D49087000
:202DC00004E0781B86B201201A49087022E004EB4400174901EBC0008068A84207D200203C
:202DE00004EB4401124A02EBC10188600CE004EB44000F4901EBC0008068401B04EB440112
:202E00000B4A02EBC101886004EB4400084901EBC000447D062CDAD1304600F073F8BDE882
:202E2000F0810000082800400400002088010020F8000020900100200C00002010B500BF6B
:202E400012480068C0F38060F0B100BF0F480068C0F30070C0B9FEF751FBFEF74FFB00BF23
:202E60000A48001F006840F480304FF0B041C1F8900000BF00BF0846D0F8900020F4803034
:202E8000C1F8900000BF00BF10BD00009400005810B5FFF7D3FF00F001F810BD08B54FF46F
:202EA00080104FF0B041096D01434FF0B04211651146096D0140009100BF00BF3F2010491C
:202EC000886000BF00BF886100BF00BF496841EA00410B4A516000BF00BF1146496941EA50
:202EE0000041516100BF00BF114649680143516000BF00BF114649690143516100BF08BD63
:202F0000000C005810B504463CB9FFF713FF214908600320FEF758FA3AE0012C03DC1E4879
:202F20000078012801D0601E84B200BF1B4800680068C068C0F380000028F7D01748006868
:202F40000068C06800F0800060F49060134909680968C8604FF40020114908600320FEF78A
:202F6000EFF9104800686FF30F0020430D490860FFF7E0FE07490860084800680068806883
:202F800040F480600549096809688860AFF3008010BD00008C01002008000020040000201D
:202FA0000C0800581428004070B50F480068401CB8B1FFF7BFFE04460B480068A04203D310
:202FC00009480068041B05E008480088051B06480068441906480078444306480078C44012
:202FE00000E00024A0B270BD8C0100200A00002009000020080000207FB505466C4623468C
:2030000005F10C0221214FF6664002F003FAA07B04B070BD7FB505466C46234605F10C02F6
:203020000F214FF6684002F0F5F9A07B04B070BD2DE9FF4104460D46E84600261CB1C8F8C3
:203040000040301DC6B21DB1C8F80450301DC6B26F463B466A4631464FF6544002F0DAF9C9
:20306000B87B04B0BDE8F0817FB504466D462B46002211464FF6524002F0CCF90CB1E87B8A
:203080002070A87B04B070BD1FB56C462346002211464FF65A4002F0BDF9A07B04B010BD11
:2030A0002DE9F04105466C1C2078052804D03E2805D0FF281ED10FE0FDF796FA1BE0A61CDC
:2030C0003078012805D10E490E480078FFF7CAF800E000BF00BF0EE0A71C3888042803D09E
:2030E000A0F2074020B903E00020FDF757FB00BF00BF00E000BF00BF0120BDE8F0810000C2
:203100001B8107001800002010B50020034908770349087000F014F810BD0000AC000020CB
:20312000CC000020704700000449097F034A42F821001146097F491C11777047AC00002020
:2031400010B5FDF792FAFDF72BFCFDF783FCFDF7FFFCFEF73DFDFEF73CFDFEF73BFDFFF72D
:20316000C1F9FFF746FA00F043FAFFF7A2FBFFF7BBFDFFF713FCFDF721FBFFF799FBFFF75C
:20318000D1FF10BD2DE9F0470646771C4FF000093878FF281FD107F10208B8F8000000F4B1
:2031A0007F40B0F5406F13D100250BE0174850F82510304688478146B9F1000F00D005E0B2
:2031C000681CC5B21148007FA842EFDC00BF00E000BF00BF00E000BF00BFB9F1000F06D05D
:2031E000B9F1010F08D0B9F1020F09D106E03046FFF756FF044605E0012403E0002401E0C5
:20320000012400BF00BF2046BDE8F087AC0000207047000070B505460C461646094800682F
:20322000A0F8095007480068C47222463146054800680C30FCF7CFFF0348002102690846FA
:20324000904770BDDC000020D802002008B509E069460748FFF7AEFA064909690869009967
:20326000FFF786FA0248FFF794FA0028F0D008BD640000200000032010B5FEF719F810BD1E
:2032800038B5FEF73BF9FEF739F900202A49096821F070010143284A116000BF0621274BEC
:2032A0001B88C3F303230093009B3BB913461B6823F00F030B431446236010E0009B9A1FFD
:2032C0008818002801DA002002E00F2800DD0F20194B1B6823F00F030343174C236000BF0F
:2032E00002201549096821F4004100F0020241EA8231114A116000BF00BF1148006840F07A
:2033000001004FF0B041C1F8900000BF00BF00BF0B480068C0F340000028F8D04FF4804055
:203320000749091D096821F4404101434FF0B042C2F8941000BF38BD1C0400585875FF1F26
:203340009000005810B5FDF7F3FA2E48006840F470002C4908600020FFF79EFC044674B161
:20336000A0792949294A11604FF0B041D1F89C1021F47C5141EA0021116000BF00BF00BF5D
:203380004FF0B040006840F480304FF0B041086000BF01201E49096821F0070101431C4A9F
:2033A000116000BF00BF00BF1948006800F007000128F8D100BF00BF4FF0B0400068C0F3E5
:2033C00040400028F7D002204FF0B041896821F0030101434FF0B042916000BF00BF00BF83
:2033E0004FF0B040806800F00C000828F7D100BF4FF0B040006820F001004FF0B0410860C3
:2034000000BF10BD88ED00E0FECAFECA9C0000580040005810B54FF400404FF0B041896846
:2034200021F4004101434FF0B042916000BF01F095F810BD70B5044626460B48FFF784F925
:203440000A484568B0682860F068E860084868600548A860FEF7DCFB064930680860064956
:2034600070680860002070BD3C0A0320000003202C0A03206C0000207000002070B504464F
:203480000D4601200349496809680872FEF7DCFB002070BD0000032010B5FEF7DDFB10BD35
:2034A00010B50B480B4908600B4848600B4888600B4808620B48C8600B4808610B48486112
:2034C0000B4888610B48C861FEF7E6FB10BD00003001032000000320500103206001032022
:2034E0006C010320740103207C010320980103209C010320A801032010B5044621460348FB
:20350000FFF736F90248FEF701FC10BD640000204D32000810B504461248FFF715F91248AB
:20352000FFF712F91148006911490860A068096888600F49E0680968C8600A480C49096854
:2035400008610B49206809680860094960680968486007492069096848610549606909689F
:20356000886110BDB401032064000020000003207C00002070B5044625460948FFF7E4F87D
:203580000848C668A868306005487060FEF738FC054928680860054968680860002070BDAE
:2035A000440A032000000320740000207800002070B504460D4610200349C96809680872F1
:2035C000FEF726FC002070BD000003207047000010B50548FFF7B8F8034804494969086043
:2035E000FEF73EFC10BD0000BC01032000000320704710B50446002001F0DCFE10BD00004E
:2036000010B50446607A0F2802D0607A0E2807D121460748FFF7ACF8002001F057FD06E035
:2036200021460448FFF7A4F8024801F06DFD10BD4C000020D40000201FB504460A48FFF70D
:2036400083F80A4804600A48FFF77EF80120094908700948006830B1029408480090064832
:203660000168684688471FBD4C000020DC000020D4000020E0000020D802002001360008F3
:203680003EB504460B4804600B48FFF75DF80120FDF7C0F90120094908700948006840B135
:2036A0000294084800900848019005480168684688473EBDF0000020E4000020F40000205D
:2036C000F8020020F3350008CD36000810B5044621460348FFF74CF8014801F089FE10BD0C
:2036E000E400002090F8281001F0010139B10168496821F40031C26A11430268516090F8A6
:20370000281001F00201022907D10168496821F48031026B11430268516090F8281001F00D
:203720000401042907D10168496821F48021426B11430268516090F8281001F008010829A8
:2037400007D10168496821F40041826B11430268516090F8281001F01001102907D1016889
:20376000896821F48051C26B11430268916090F8281001F02001202907D10168896821F434
:203780000051026C11430268916090F8281001F04001402913D10168496821F48011426C0E
:2037A000114302685160416CB1F5801F07D10168496821F4C001826C11430268516090F8FB
:2037C000281001F08001802907D10168496821F40021C26C114302685160704738B50446E3
:2037E0000020C4F88800FDF75DFD05462068006800F0080008280CD16FF07E402B46002227
:203800004FF400110090204600F044FE08B1032038BD2068006800F0040004280CD16FF00F
:203820007E402B4600224FF480010090204600F031FE08B10320EBE72020C4F88000C4F878
:20384000840000BF002084F87C0000BF00BFDFE770B50546AC6A0020A4F85E00A4F8560037
:203860002046FDF7C1FF70BD0168096821F490710268116001688968044A114002689160E2
:203880002021C0F884100021C1667047FEFFFFEF10B504462068006820F040002168086071
:2038A0002020C4F88000002020672046FEF77CF910BD00002DE9FC5F04464FF00009002025
:2038C00000908346FE492068884200D100E000BF2169A068084361690843E16940EA010A15
:2038E000606E40EA0A0A20680068F649084040EA0A00216808602068406820F44050E16803
:20390000084321684860D4F818A0ED492068884202D0206A40EA0A0A20688068EA4908409A
:2039200040EA0A00216888602068C06A20F00F00616A08432168C86200BFE449206888420A
:2039400016D10320E2490968014031B1012908D0022904D0032908D105E0012507E002257F
:2039600005E0042503E0082501E0102500BF1FE0D349206888421AD14FF44060D44909688B
:20398000014049B1B1F5806F0AD0B1F5006F05D0B1F5406F08D105E0002507E0022505E068
:2039A000042503E0082501E0102500BF00E0102500BFC3492068884270D135B1022D46D05B
:2039C000042D6CD0082D6BD1C7E0FDF7DDFD616A09B9012138E0616A012901D1022133E0D0
:2039E000616A022901D104212EE0616A032901D1062129E0616A042901D1082124E0616A11
:203A0000052901D10A211FE0616A062901D10C211AE0616A072901D1102115E0616A08299A
:203A200001D1202110E0616A092901D140210BE0616A0A2901D1802106E0616A0B2902D13F
:203A40004FF4807100E00121B0FBF1FBCAE0606A08B901203BE0606A012801D1022036E02B
:203A6000606A022801D1042031E0606A032801D106202CE0606A042801D1082027E0606A91
:203A8000052801D10A2022E0606A062801D10C201DE0606A072804D1102018E056E21AE0E0
:203AA0009DE0606A082801D1202010E0606A092801D140200BE0606A0A2801D1802006E021
:203AC000606A0B2802D14FF4807000E001208149B1FBF0FB86E0FDF77BFD616A09B9012100
:203AE00038E0616A012901D1022133E0616A022901D104212EE0616A032901D1062129E0BD
:203B0000616A042901D1082124E0616A052901D10A211FE0616A062901D10C211AE0616AFB
:203B2000072901D1102115E0616A082901D1202110E0616A092901D140210BE0616A0A2945
:203B400001D1802106E0616A0B2902D14FF4807100E00121B0FBF1FB44E0606A08B901209D
:203B600038E0606A012801D1022033E0606A022801D104202EE0606A032801D1062029E045
:203B8000606A042801D1082024E0606A052801D10A201FE0606A062801D10C201AE0606A85
:203BA000072801D1102015E0606A082801D1202010E0606A092801D140200BE0606A0A28CF
:203BC00001D1802006E0606A0B2802D14FF4807000E001204FF40041B1FBF0FB02E001206B
:203BE000009000BF00BFBBF1000F0AD0606800EB4000584503D860680003584502D201205A
:203C00000090F5E235B1022D74D0042D65D0082D6FD12CE1FDF7B8FC0646606A08B901225A
:203C200038E0606A012801D1022233E0606A022801D104222EE0606A032801D1062229E07E
:203C4000606A042801D1082224E0606A052801D10A221FE0606A062801D10C221AE0606ABE
:203C6000072801D1102215E0606A082801D1202210E0606A092801D140220BE0606A0A2808
:203C800001D1802206E0606A0B2802D14FF4807200E001229446002330461946FCF76AFA99
:203CA0004FF4807200238C46A0FB021E0CFB02E200FB0323606840088C461CEB00070DE036
:203CC00000800040F369FFCFFFF4FF1100380140880000580024F4000CE068E043F100011D
:203CE000D4F804C0624600233846FCF743FA81461EE11AE1606A08B9012238E0606A012841
:203D000001D1022233E0606A022801D104222EE0606A032801D1062229E0606A042801D1E0
:203D2000082224E0606A052801D10A221FE0606A062801D10C221AE0606A072801D1102272
:203D400015E0606A082801D1202210E0606A092801D140220BE0606A0A2801D1802206E000
:203D6000606A0B2802D14FF4807200E0012294460023F7481946FCF7FDF94FF4807200235F
:203D80008C46A0FB021E0CFB02E200FB0323606840088C461CEB000743F10001D4F804C0D5
:203DA000624600233846FCF7E5F98146C0E0FDF70FFC0646606A08B9012238E0606A01287E
:203DC00001D1022233E0606A022801D104222EE0606A032801D1062229E0606A042801D120
:203DE000082224E0606A052801D10A221FE0606A062801D10C221AE0606A072801D11022B2
:203E000015E0606A082801D1202210E0606A092801D140220BE0606A0A2801D1802206E03F
:203E2000606A0B2802D14FF4807200E001229446002330461946FCF79DF94FF480730022C7
:203E40008C46A0FB031E0CFB03E300FB0233606840088C461CEB000743EB0201D4F804C006
:203E6000624600233846FCF785F9814660E0606A08B9012238E0606A012801D1022233E0BF
:203E8000606A022801D104222EE0606A032801D1062229E0606A042801D1082224E0606A70
:203EA000052801D10A221FE0606A062801D10C221AE0606A072801D1102215E0606A0828FA
:203EC00001D1202210E0606A092801D140220BE0606A0A2801D1802206E0606A0B2802D19E
:203EE0004FF4807200E00122944600234FF400401946FCF73FF94FF4807300228C46A0FBBB
:203F0000031E0CFB03E300FB0233606840088C461CEB000743EB0201D4F804C062460023E7
:203F20003846FCF727F9814602E00120009000BF00BFB9F5407F06D3B9F5801F03D2206828
:203F4000C0F80C9098E20120009095E2E069B0F5004F70D1012D06D0022D4FD0042D6BD02F
:203F6000082D6AD1E1E0FDF721FB0646606A08B9012038E0606A012801D1022033E0606A2C
:203F8000022801D104202EE0606A032801D1062029E0606A042801D1082024E0606A052812
:203FA00001D10A201FE0606A062801D10C201AE0606A072801D1102015E0606A082801D15A
:203FC000202010E0606A092801D140200BE0606A0A2801D1802006E0606A0B2802D14FF432
:203FE000807000E00120B6FBF0F04000616800EB5100B0FBF1F01FFA80F9E5E0606A08B98C
:2040000001203BE0606A012801D1022036E0606A022801D1042031E0606A032801D106207F
:204020002CE0606A042801D1082027E0606A052804D10A2022E0DFE02CE0C2E0606A062820
:2040400001D10C201AE0606A072801D1102015E0606A082801D1202010E0606A092801D1AF
:2040600040200BE0606A0A2801D1802006E0606A0B2802D14FF4807000E001203449B1FB74
:20408000F0F04000616800EB5100B0FBF1F01FFA80F999E0FDF79CFA0646606A08B90120E2
:2040A00038E0606A012801D1022033E0606A022801D104202EE0606A032801D1062029E000
:2040C000606A042801D1082024E0606A052801D10A201FE0606A062801D10C201AE0606A40
:2040E000072801D1102015E0606A082801D1202010E0606A092801D140200BE0606A0A288A
:2041000001D1802006E0606A0B2802D14FF4807000E00120B6FBF0F04000616800EB51006D
:20412000B0FBF1F01FFA80F94EE0606A08B901203AE0606A012801D1022035E0606A02287D
:2041400001D1042030E0606A032803D106202BE00024F400606A042801D1082024E0606A89
:20416000052801D10A201FE0606A062801D10C201AE0606A072801D1102015E0606A08283D
:2041800001D1202010E0606A092801D140200BE0606A0A2801D1802006E0606A0B2802D1E1
:2041A0004FF4807000E001204FF40041B1FBF0F04000616800EB5100B0FBF1F01FFA80F958
:2041C00002E00120009000BF00BFB9F1100F10D3B9F5803F0DD24FF6F07009EA00000190AD
:2041E000C9F3420101980843019001982168C86042E1012000903FE1012D06D0022D4ED0BC
:20420000042D6ED0082D6DD1DDE0FDF7CFF90646606A08B9012038E0606A012801D102204C
:2042200033E0606A022801D104202EE0606A032801D1062029E0606A042801D1082024E089
:20424000606A052801D10A201FE0606A062801D10C201AE0606A072801D1102015E0606AC2
:20426000082801D1202010E0606A092801D140200BE0606A0A2801D1802006E0606A0B28A3
:2042800002D14FF4807000E00120B6FBF0F0616800EB5100B0FBF1F01FFA80F9DFE0606ADA
:2042A00008B901203AE0606A012801D1022035E0606A022801D1042030E0606A032801D145
:2042C00006202BE0606A042801D1082026E0606A052801D10A2021E0606A062803D10C20CB
:2042E0001CE026E0B8E0606A072801D1102015E0606A082801D1202010E0606A092801D16B
:2043000040200BE0606A0A2801D1802006E0606A0B2802D14FF4807000E001205C49B1FBA9
:20432000F0F0616800EB5100B0FBF1F01FFA80F995E0FDF74DF90646606A08B9012038E0BB
:20434000606A012801D1022033E0606A022801D104202EE0606A032801D1062029E0606AAB
:20436000042801D1082024E0606A052801D10A201FE0606A062801D10C201AE0606A072838
:2043800001D1102015E0606A082801D1202010E0606A092801D140200BE0606A0A2801D144
:2043A000802006E0606A0B2802D14FF4807000E00120B6FBF0F0616800EB5100B0FBF1F051
:2043C0001FFA80F94BE0606A08B9012038E0606A012801D1022033E0606A022801D1042078
:2043E0002EE0606A032801D1062029E0606A042801D1082024E0606A052801D10A201FE0D3
:20440000606A062801D10C201AE0606A072801D1102015E0606A082801D1202010E0606AF6
:20442000092801D140200BE0606A0A2801D1802006E0606A0B2802D14FF4807000E00120D6
:204440004FF40041B1FBF0F0616800EB5100B0FBF1F01FFA80F902E00120009000BF00BF18
:20446000B9F1100F06D3B9F5803F03D22068C0F80C9001E0012000900120A4F86A00A4F827
:2044800068000020E06620670098BDE8FC9F00000024F4002DE9F04104460D4617469846B8
:2044A000069E4AE0701C002847D0FCF7FBFEA0EB0800B04200D8C6B92068006820F4D07057
:2044C000216808602068806820F00100216888602020C4F88000C4F8840000BF002084F8E2
:2044E0007C0000BF0320BDE8F0812068006800F0040010B32068C069C0F3C020E8B14FF481
:204500000060216808622068006820F4D070216808602068806820F00100216888602020E1
:20452000C4F88000C4F88400C4F8880000BF002084F87C0000BF0320D5E72068C06928402D
:20454000A84201D1012000E00020B842AAD00020C9E710B50020FDF797FF10BD0020024993
:204560000860024908607047800000208400002070B504460D4600F019FA064672B63DB1FE
:20458000012D0BD10848006820430749086006E005480068A0430449086000E000BF00BFAD
:2045A000304600F01EFA70BD8400002070B504460D464FF0FF3000F03FF870BD7047000071
:2045C00070B5044600F0F5F9054672B604480068A04303490860284600F006FA70BD000045
:2045E0008C000020704770472DE9F04105460F46144600F0DEF9064672B6284600F04AFD80
:20460000034941F82040304600F0EEF9BDE8F0813813002070B5044600F0CBF9054672B651
:2046200004480068204303490860284600F0DCF970BD00008C0000202DE9F04706464E4874
:20464000D0F80080006830404B49086062E0002400E0641C494850F8340049490968084020
:204660004549096808400028F3D0444850F834004349096808404049096800EA01053F484A
:2046800000EBC4004068284028B94FF0FF303B4901EBC4014860394901EBC401496801EA60
:2046A000050000F0F7FC37490860344800EBC40040680A78012191408843304901EBC401ED
:2046C000486000F076F9074672B62E480178012088402D49096881432B48016002240DE0F4
:2046E000601E264951F8300026490A78012191408843611E214A42F83100641E002CEFD1E2
:20470000384600F071F921491E4A126851F82200804700BF1C48006819490968084016493E
:204720000968084030B11A4800681A490968084000288CD0FFF757FF00F03BF9814672B616
:20474000114800680E49096808400B490968084038B90F4800680F490968084008B9FFF703
:204760002DFF484600F040F9FFF73CFF0248C0F80080BDE8F087000090000020B8130020EC
:204780008C0000209C0000208800002038130020940000209800002070B5044600F009F9D1
:2047A000054672B604480068204303490860284600F01AF970BD00009400002070B50446FA
:2047C0000D4600F0F6F8064672B608480068204306490860064850F835002043044941F8AE
:2047E0003500304600F000F970BD000088000020B813002070B5044611480178012000FA09
:2048000001F610480568046004E00E4801683046FFF7CCFE0C4800680A49096808400028AF
:20482000F3D0304600F036FC0549086006480068044909688843044908600248056070BD97
:204840009C000020980000209400002070B50A46214C2478A0420CD11F4C24781F4D2C70E4
:2048600000EB40041E4D05EBC404647D1A4D2C7022E000EB40041A4D05EBC404237D00EB27
:20488000400405EBC404617D00EB400405EBC404647D03EB4305124E06EBC5056C75062915
:2048A0000AD000EB4004354605EBC404247D01EB410506EBC5052C75012400EB4005084EE2
:2048C00006EBC5052C73044C2478062C03D112B9E41F044D2C6070BD880100208901002061
:2048E000F80000208C01002002480068C0F30220704700000CED00E010B5002804DB0A07FF
:20490000130E054A135406E00A07140E034A00F00F031B1FD45410BD00E400E018ED00E080
:2049200000BF00BF00BFBFF34F8F00BF00BF00BF0948006800F4E06008490843001D064978
:20494000086000BF00BF00BFBFF34F8F00BF00BF00BF00BF00BFFDE70CED00E00000FA05AB
:2049600000BF00BF00BFBFF34F8F00BF00BF00BF0948006800F4E06008490843001D064938
:20498000086000BF00BF00BFBFF34F8F00BF00BF00BF00BF00BFFDE70CED00E00000FA056B
:2049A000EFF310807047EFF310807047EFF310807047EFF31080704702E008C8121F08C1A7
:2049C000002AFAD170477047002001E001C1121F002AFBD1704780F31088704780F3108806
:2049E000704780F31088704780F3108870472DE9F04FC9B006460F4690469946DDF84CB186
:204A0000DDF848A103AD0722002101A8FEF762F900242E70641C6F70641C85F80280641CC5
:204A20001822002143A8FEF755F93F20ADF80C018A20ADF80E0103A84590469401A84790A4
:204A400007204890002143A800F094FB002803DAFF2049B0BDE8F08F9DF8040010B19DF89C
:204A60000400F6E7BDF80500A9F80000BDF80700AAF80000BDF80900ABF800000020E8E74C
:204A80002DE9F04FC7B006460F4690469946DDF844B1DDF840A101AD0020009000242E7054
:204AA000641C6F70641C85F80280641C85F80390641C85F804A0641C85F805B0641C5298CB
:204AC000A871641C5398C5F80700241D5498E872641C1822002141A8FEF7FCF83F20ADF856
:204AE00004018620ADF8060101A843904494CDF814D101204690002141A800F03BFB002812
:204B000003DAFF2047B0BDE8F08F9DF8000010B19DF80000F6E70020F4E72DE9F04FC9B0ED
:204B20008046894692469B46559F539D03AE05A82844029005A82844401C38440190002045
:204B40000090002486F80080641CA6F80190A41CA6F803A0A41C86F805B0641C5298B07175
:204B6000641CF571641C2A4606F108005499FEF7A7F82C4402980770641C3A460298401C68
:204B80005699FEF79DF83C44019957980880A41C019958984880A41C1822002143A8FEF7FE
:204BA00099F83F20ADF80C018320ADF80E0103A845904694CDF81CD101204890002143A8EB
:204BC00000F0D8FA002803DAFF2049B0BDE8F08F9DF8000010B19DF80000F6E70020F4E70F
:204BE00070B5C8B0044602AE00200190002534706D1C1822002142A8FEF76CF83F20ADF879
:204C000008018520ADF80A0102A84490459501A8469001204790002142A800F0ABFA00289F
:204C200002DAFF2048B070BD9DF8040010B19DF80400F7E70020F5E7F0B5C7B004460F46CC
:204C400001AE00200090002534706D1C22463946701CFEF735F825441822002141A8FEF76C
:204C600039F83F20ADF804018E20ADF8060101A843904495CDF814D101204690002141A8A0
:204C800000F078FA002802DAFF2047B0F0BD9DF8000010B19DF80000F7E70020F5E72DE910
:204CA000F04FC7B081460E4692469B460DF10408012E01D1022104E0022E01D1102100E045
:204CC00000210DF107000D18032200216846FEF701F80024A8F80090A41C88F80260641C31
:204CE000012E02D0022E04D101E0022705E0102703E0472047B0BDE8F08F00BF3A4651464D
:204D000008F10300FDF7DCFF3C44A5F800B0A41C5098A870641C5198E870641C5298287177
:204D2000641C53986871641C5498A871641C1822002141A8FDF7CEFF3F20ADF804014FF4D9
:204D40008270ADF8060101A843904494CDF814D103204690002141A800F00CFA002801DABB
:204D6000FF20C7E79DF8000010B19DF80000C1E7BDF80110559801800020BBE72DE9FF4F79
:204D8000C7B0044690469946DDF850B10DF1040A012C01D1022104E0022C01D1102100E0A4
:204DA00000210DF105000F18032200216846FDF791FF00258AF800406D1C012C02D0022C93
:204DC00004D101E0022605E0102603E047204BB0BDE8F08F00BF32460AF101004899FDF769
:204DE0006FFF354487F800806D1C87F801906D1C1822002141A8FDF76DFF3F20ADF80401FE
:204E00004FF48170ADF8060101A843904495CDF814D103204690002141A800F0ABF90028F4
:204E200001DAFF20D3E79DF8000010B19DF80000CDE7BDF80100ABF800000020C7E700B543
:204E400087B0002000901822002101A8FDF742FF3F20ADF8040040F20110ADF80600CDF877
:204E600014D001200690002101A800F083F9002802DAFF2007B000BD9DF8000010B19DF8DF
:204E80000000F7E70020F5E72DE9F047C8B00746884691461E46DDF840A102AD0020019007
:204EA00000242F80A41CA5F80280A41C85F80490641C6E71641C32465146A81DFDF700FFC9
:204EC00034441822002142A8FDF704FF3F20ADF808014FF48370ADF80A0102A844904594D4
:204EE00001A8469001204790002142A800F042F9002803DAFF2048B0BDE8F0879DF8040034
:204F000010B19DF80400F6E70020F4E770B5C8B0044602AE0020019000253480AD1C18223B
:204F2000002142A8FDF7D6FE3F20ADF808011820ADF80A0102A84490459501A846900120B1
:204F40004790002142A800F015F9002802DAFF2048B070BD9DF8040010B19DF80400F7E758
:204F60000020F5E7F0B5C7B005460E4601AF0020009000243D70641C7E70641C1822002100
:204F800041A8FDF7A7FE3F20ADF804010F20ADF8060101A843904494CDF814D101204690B6
:204FA000002141A800F0E6F8002802DAFF2047B0F0BD9DF8000010B19DF80000F7E7002069
:204FC000F5E72DE9F041C8B007460C46904602AE00200190002537706D1C74706D1C224636
:204FE0004146B01CFDF76CFE25441822002142A8FDF770FE3F20ADF808010C20ADF80A0107
:2050000002A84490459501A8469001204790002142A800F0AFF8002803DAFF2048B0BDE85E
:20502000F0819DF8040010B19DF80400F6E70020F4E7000000B589B0FEF732FA0E4A0021AC
:205040000220FFF7D1FA0D4801900D48029001A90C4800F0BBF90C4803900C4804900C48DB
:20506000059040F23C50069003A8FEF753FAFEF713FA09B000BD00007D54000808070320D7
:2050800055040008570400082009032014080320CC01032001460022080C000408B910225D
:2050A000090401F07F4008B90832090201F0704008B9121D0901044800EB1170007802441C
:2050C000C2F11F0070470000C857000810B504460120FFF761FB10BD10B504460120FFF7AB
:2050E00089FB10BD70B505460C460549606808600448C56100F010F82068FEF79DFA70BD74
:2051000054000020D802002010B5044600210120FFF754FB10BD0000024901600249016165
:2051200070470000353400087D34000800B587B0002000901822002101A8FDF7CBFD03200F
:20514000ADF80400ADF80600CDF814D001200690002101A800F00EF8002802DAFF2007B001
:2051600000BD9DF8000010B19DF80000F7E70020F5E700002DE9F84F04468A460020FDF722
:205180009BFB4FF000092188608861F39F2087B2217B3846A268FEF73DF83BE048F2E800C9
:2051A000FFF79AFF31E069461F48FDF703FB0098407A0F280DD1009800F10B067088B84254
:2051C00002D13078216908707078F0B14FF001091BE0009800F10B05B5F80100B84210D163
:2051E0000098807AC01E00F0FF086069404501DD404600E060696061E91CD4E90402FAF773
:20520000EAFF287808B14FF001090748FDF7C1FA0028C8D0B9F1000FC0D00120FDF74CFBA0
:205220000020BDE8F88F00004C0000200EB51A48FDF7AFFA00BB19480078E8B102A91648BE
:20524000FDF7B8FA1648C06968B10298019001208DF800001248C169684688479DF80000A1
:205260000E49087002E001200C4908700B48007818B10298FEF740F903E007480299FDF772
:2052800066FA0548FDF785FA28B90448007810B10148FFF739FF0EBDD4000020E000002052
:2052A000D80200202DE9F041044634480078062811D1324800783249087030480470062068
:2052C00004EB44012F4A02EBC1014875C01F2E49086000264EE0FDF767FE064604EB4400CB
:2052E000284901EBC0008068304404EB4401254A02EBC101886004EB4400114601EBC000C5
:2053000087681E48007800EB400001EBC0008068B84224D81948057805EB450001EBC0004C
:2053200090F815800BE005EB4500164901EBC000457D05EB450001EBC00090F81580B8F1BC
:20534000060F07D008EB48000E4901EBC0008068B842E8D929462046FDF758FA0AE007482C
:2053600001782046FDF774FA0448007804490870024804703046BDE8F08100008801002070
:2053800089010020F80000208C010020FBF79CFFFDF77EFDFBF76AF9FDF772FFFDF7ACF850
:2053A000FDF7C0F8FBF742F803E04FF0FF30FFF743F9FAE710B504460220FFF7EDF910BDD7
:2053C00010B504460220FFF715FA10BD70B505460C460549606808600448C56100F010F820
:2053E0002068FEF74DF970BD5C000020F802002010B5044600210220FFF7E0F910BD000039
:2054000002490160024901617047000075350008B13500082DE9F04105460C4616461F4637
:205420000020FBF7F7FA13480068A0F8095011480068C472224631460E4800680C30FAF7F4
:20544000CAFE0D48002102690846904748F2E800FFF7B6FF074800688078C21C054801686E
:2054600007F10800FAF7B7FE0120FBF7D3FABDE8F0810000F0000020F80200200EB51A4841
:20548000FDF787F900BB19480078E8B102A91648FDF790F91648C06968B1029801900120F9
:2054A0008DF800001248C169684688479DF800000E49087002E001200C4908700B48007867
:2054C00018B10298FEF718F803E007480299FDF73EF90548FDF75DF928B90448007810B16F
:2054E0000148FFF785FF0EBDE4000020F4000020F80200200000004801000000000000485B
:20550000010000000000004801000000000000480100000000000048010000000000004867
:20552000010000000000004801000000000000480100000000000048010000000000004847
:20554000010000000000004801000000000000480100000000000048010000000000004827
:20556000010000000000004801000000000000480100000000000048010000000000004807
:205580000100000000000048010000000000004801000000000000480100000000000048E7
:2055A0000100000000000048010000000000004801000000000000480100000000000048C7
:2055C0000100000000000048010000000000004801000000000000480100000000000048A7
:2055E000010000000000004801000000000000480100000000000048010000000000004887
:2056000001000000000000000000000000000000F4540008C4010320C8010320220404003B
:205620006C7AD8AC5772123456789ABCDEF0123456789ABCDEF0FEDCBA0987654321FEDC00
:20564000BA098765432109534D54435F544B525F4F54410000000000000000000000000064
:20566000000000000000000044000800400508013A799C00F4010000FFFFFFFF4801010006
:205680000000200010000000010000000300000005000000010000000100000006000000C9
:2056A0000A00000020000000020000000400000008000000100000004000000080000000E2
:2056C0000001000000020000000000000000000000000000000000000100000002000000C4
:2056E0000300000004000000A0860100400D0300801A060000350C0040420F0080841E0098
:2057000000093D0000127A000024F40000366E010048E801006CDC0200000000000000007F
:2057200000000000000000000100000003000000020000000200000001000000020000005E
:20574000020000000600000004000000030000000200000004000000040000000C00000024
:2057600008000000060000000400000008000000040000000C0000000800000006000000F1
:2057800004000000080000008FE5B3D52E7F4A982A487ACC20FE000019ED82AEED214C9D6F
:2057A0004145228E22FE000019ED82AEED214C9D4145228E23FE000019ED82AEED214C9DE2
:2057C0004145228E24FE0000040302020101010100000000000000000858000804000020D6
:2057E000900100009402000828580008000003204C0A00009402000828580008940100209E
:2058000034220000C8490008011B05120DFF0186120412481A100453093D32100243015A3A
:20582000FF0101FF1100000001FF01FF01FF01FF01FF01FF01FF01FF01FF01FF0156000000
:20584000FFFFFFFFFFFFFFFFFFFFFFFFFFFFFFFFFFFFFFFFFFFFFFFFFFFFFFFFFFFFFFFF68
:20586000FFFFFFFFFFFFFFFFFFFFFFFFFFFFFFFFFFFFFFFFFFFFFFFFFFFFFFFFFFFFFFFF48
:20588000FFFFFFFFFFFFFFFFFFFFFFFFFFFFFFFFFFFFFFFFFFFFFFFFFFFFFFFFFFFFFFFF28
:2058A000FFFFFFFFFFFFFFFFFFFFFFFFFFFFFFFFFFFFFFFFFFFFFFFFFFFFFFFFFFFFFFFF08
:20700000583E00201573000825D50008D1C9000821D50008B9830008F5FE00080000000049
:2070200000000000000000000000000031E80008F184000800000000F5DB0008F1E80008F9
:207040002F73000899D900082F73000851DF00082F7300082F7300080B8500084985000868
:20706000538500085D85000867850008358400082F7300082F7300082F7300082F730008E9
:207080002F7300082F730008F97A00082F7300082F7300082F7300082F730008718500087B
:2070A0002F7300082F7300082F7300082F7300082F7300082F7300082F7300082F73000880
:2070C0002F7300082F7300082F7300082F73000885FB00082F7300082F7300082F73000882
:2070E00015850008A1DE00082F7300082F73000819CD000821CD00082F730008A1D200080A
:207100002F7300082F7300082F7300082F7300082F7300082F7300082F7300082F7300081F
:207120002F7300082F7300082F7300082F7300082F7300082F7300082F73000800000000A9
:2071400020F401085A02012A03010424010101280B09534D54435F544B525F0105160DFF12
:207160000183321039510341093D5AFF010114721145E937010872124B312F1072194BB10F
:20718000E51081E9EDE91015FF8F0C081254024C400916C401410A555CA80B4B300158098F
:2071A0001A705972A10A64387C092AA401FF01FF0176000001FF01FF01FF01FF01FF01FF69
:0C71C00001FF01FF01FF01FF015600006C
:20730000DFF80CD000F0A8FB00480047E56A0108583E00200648804706480047FEE7FEE716
:20732000FEE7FEE7FEE7FEE7FEE7FEE7FEE7FEE7CDE90008017300082DE9F05F054600201B
:2073400092469B4688460646814640241BE0284641464746224600F0A9F953465A46C01AA5
:20736000914110D311461846224600F016F82D1A67EB01084F4622460120002100F00DF867
:2073800017EB00094E41201EA4F10104DFDC484631462A464346BDE8F09F202A04DB203A0B
:2073A00000FA02F1002070479140C2F1200320FA03F3194390407047014610B509683C2294
:2073C000B1FBF2F302FB1313B1FBF2F11D480360B1FBF2F302FB1313B1FBF2F11822436082
:2073E000B1FBF2F302FB1313B1FBF2F183600A1D0723B2FBF3F403FB142282618A0040F2AF
:20740000B55102F66C32B2FBF1F344334361B2FBF1F301FB13218908C1613B2903D3027DF7
:20742000920700D0491C0022074C13460261E25C8A4203D8891A5B1C0361F8E7491CC16085
:2074400010BD0000282E002020F1010810B540EA01040346A40703D009E010C9121F10C34E
:20746000042AFAD203E011F8014B03F8014B521EF9D210BDD2B201E000F8012B491EFBD2CE
:2074800070470022F6E710B513460A4604461946FFF7F0FF204610BD421C10F8011B00295C
:2074A000FBD1801A70472DE9F04D81EA030404F0004B21F0004514464FF0000A23F000415E
:2074C00050EA050220D054EA01021DD0C5F30A570246C5F31303C1F31300C1F30A5640F40F
:2074E000801543F48013A7EB0608101BD64608F2FD3873EB050002D308F1010801E0921852
:207500005B41B8F1000F03DA00200146BDE8F08D00204FF48011064684460EE0171B73EB29
:20752000050705D3121B63EB050306434CEA010C49084FEA300092185B4150EA0107EDD158
:2075400052EA030012D082EA040083EA0501084305D0101BAB4106D20122002306E00022CA
:207560004FF0004302E06FF0010253101AEB06004CEB085110EB0A0041EB0B01BDE8F04D28
:2075800000F0DBB80EB5C10F80EAE0700844CA07002140F233438DE80E000A460B4600F021
:2075A000DBF803B000BD0EB540F2334102910021CDE900110A460B4600F0CEF803B000BDDD
:2075C000C1F30A5210B5C1F3130140F2FF3341F480119A4201DA002010BD40F233439A42BC
:2075E000A2F2334203DC524200F060F810BD904010BD00F0004230F000400AD0C10D01F52D
:207600006071C0F3160042EA0151C20840071143704700200146704730B5041E71F10004AB
:2076200004DB4FF00044404264EB0101141E73F1000405DB1C464FF00043524263EB0403CE
:20764000994208BF904230BD01F0004330B421F0004150EA010206D00A0DA2F56072C1F318
:207660001301002A02DC30BC00207047440F44EAC104C100E01830BC00EBC25000F026B875
:2076800030B50B46014600202022012409E021FA02F59D4205D303FA02F5491B04FA02F5E7
:2076A0002844151EA2F10102F1DC30BD202A04DB203A21FA02F00021704721FA02F3D04053
:2076C000C2F1200291400843194670470029A8BF7047401C490008BF20F00100704710B464
:2076E000B0FA80FC00FA0CF050EA010404BF10BC704749B1CCF1200421FA04F411FA0CF1F3
:2077000018BF012121430843A3EB0C01CB1D4FEA00614FEA102042BF002010BC704700EBAC
:20772000C35010440029A4BF10BC7047401C490008BF20F0010010BC704710B5141E73F178
:20774000000408DA401C41F1000192185B411A4301D120F0010010BD2DE9F04D92469B4655
:2077600011B1B1FA81F202E0B0FA80F220329046FFF713FE04460F4640EA0A0041EA0B01F2
:2077800053465A46084313D0114653EA010019D0C8F140025046FFF789FF05460E465046C0
:2077A00059464246FFF7F9FD084305D0012004E020463946BDE8F08D0020054346EAE0769C
:2077C0002C4337430A986305E40AA0EB08000022FD0A44EA47540A3002D500200146E9E7FB
:2077E000010510196941DDE9084500196941BDE8F04DA2E72DE9FE4F804681EA0300C00F09
:207800000C46009021F0004123F00045B8EB0200A94105D24046214690461C460B460246B8
:2078200023F00040104347D0270DC7F30A00C3F30A510290401A019040286BDAC3F313008F
:2078400040F4801B0098924620B10023D2EB030A63EB0B0B01985946C0F140025046FFF710
:207860009CFD06460D4650465946019A00F006F910EB08006141002487EA115284EAE773AC
:207880001A4340D0009A62B3019A012A4FEA075215DC001B61EB02014FF0004202EA075253
:2078A000CDE90042001C41F5801132462B46FFF753FF03B0BDE8F08F40462146F9E7001BFD
:2078C00061EB0201001C41F5801300185B412018A2F5001747EB030140EAD570B6196D41B8
:2078E00011E06D084FEA360645EAC0754FEA0752001B61EB0201001C41F5801149084FEAE0
:2079000030000019514132462B4603B0BDE8F04FFFF713BF0098012240000023D0EB020267
:2079200063EBE073009821464FEAE074B8EB000061EB0401E9E783F000435BE781F00041AC
:2079400058E72DE9FE4F81EA030404F0004421F0004100944FF0000B23F0004350EA010416
:207960005ED052EA03045BD0C3F30A54C1F30A552C44A4F2F3340194A0FB0254C1F31301C9
:2079800041F48011C3F3130343F4801301FB024400FB034E840A970A44EA815447EA8357C0
:2079A000A4FB076802958D0A05FB07854FEA932C04FB0C542705029D4FEA065847EA1637C8
:2079C000B5EB08056EEB070C870E920E47EA811742EA8312A7FB0201B6EB0B0164EB00042A
:2079E0002B0D43EA0C335E1844EB1C50DA465146E7FB0201C5F313044FEA0B3343EA14535C
:207A00004FEA0432019C43EA0603A4F10C040294009CCDE900B4FFF79FFE03B0BDE8F08F79
:207A200000200146F9E7C1F30A52C1F3130140F2FF3341F480119A4202DA00200146704727
:207A400040F233439A42A2F2334202DC5242FFF72DBEFFF7A2BC0000064C074D06E0E0681E
:207A600040F0010394E8070098471034AC42F6D3FFF74AFCF0F3010820F40108202A06DB05
:207A8000CB17203A41FA02F043EAE07306E041FA02F3D040C2F120029140084319467047D0
:207AA00070B58C1810F8015B15F0070301D110F8013B2A1106D110F8012B03E010F8016BD7
:207AC00001F8016B5B1EF9D12B0705D40023521E0DD401F8013BFAE710F8013BCB1A921C92
:207AE00003E013F8015B01F8015B521EF9D5A142D8D3002070BD000010B5024801F0ECF8EA
:207B000010BD0000482D002070B50546AC6A606D00F0500098BB606D40F40070606520685F
:207B2000006800F00800A8B1206805F033F910B32068C06800F40050E8B9606D20F48070BA
:207B40006065606D00F48050A8B9606D40F00100606510E02068C06800F0020058B9606D3B
:207B600020F480706065606D00F4805018B9606D40F001006065204601F0A6F80CE0FFE750
:207B8000606D00F0100018B1204601F0A4F803E0E06C416B2846884770BD70B50546AC6A91
:207BA000606D40F040006065A06D40F00400A065204601F090F870BD70B50446A56A284685
:207BC00001F088F870BD000070B50446206805F0CDF80646206805F0CEF870B36EBB2068F3
:207BE000806800F00D0001280AD120688168174A1140891C816000BF03202168086009E037
:207C0000606D40F010006065A06D40F00100A065012070BD01F0BAFF05460FE001F0B6FF77
:207C2000401B02280AD9606D40F010006065A06D40F00100A0650120EBE705E0206880687F
:207C400000F001000028E9D10020E2E7C0FFFF7F70B50446206805F08EF888BB2068806806
:207C60001849084048B1606D40F010006065A06D40F00100A065012070BD206805F060F82A
:207C800001F084FF054615E0206805F074F810B9206805F055F801F079FF401B022809D9E4
:207CA000606D40F010006065A06D40F00100A0650120E1E72068006800F001000028E3D00A
:207CC0000020D9E73F0000807047000000B587B01C2205496846FFF7B9FB06F091FF68464A
:207CE00006F04DF907B000BD8CEE010800B585B014216846FFF7C5FB002002900320019068
:207D00004FF460400090012005F099F869464FF0904001F053FE012005F081F818200090F2
:207D2000022005F08CF86946084801F047FE022005F075F801F014FB01F02AFB01F01CFBD1
:207D400000F006F8FFF7C0FF05B000BD00040048F0B585B014216846FFF793FB0025002636
:207D60000027002427E0344800EBC400807900B3314850F83400B0F1904F06D02F490844CB
:207D800048B1B0F5806F12D10BE02B4800EBC400808805430CE0284800EBC40080880643BA
:207DA00006E0254800EBC4008088074300E000BF00BF601CC4B2222CD5DB0020029001204E
:207DC0000190032003908DB10095012005F037F8012005F0AFF869464FF0904001F0EEFDED
:207DE000002229464FF0904001F0CBFE8EB10096022005F024F8022005F09CF869460F4870
:207E0000404201F0DBFD002231460C48404201F0B8FE7FB10097042005F011F8042005F0FF
:207E200089F86946064801F0C9FD00223946044801F0A7FE05B0F0BD7CED010800FCFFB704
:207E40000008004810B506F0FDFD0649002004F0EFFCFFF74BFF0121084607F0CFFE09F062
:207E6000F1F910BDA42C0020704710B50446FFF72DFF00F005F80021012007F0BFFE10BDC3
:207E800000B58DB030221F4901A8FFF7DFFA00F083FA0121022007F0B1FE1B4A00210420BD
:207EA00007F0F6FE01A806F05CF800F0C3F906F03BFC0020154981F890004FF6FF70C88484
:207EC000134A0021012007F0E3FE202011498871062009F023F905F067FB00200B4981F819
:207EE000290081F8280080200B490880A0200B49088001200A4981F8860100F07FF80DB008
:207F000000BD0000E8EE0108893101083C030020257F000846000020D0030020D2030020A9
:207F20007410002010B501200BF033FB174890F89000052828D0002408F062FF044600200B
:207F4000124981F8900084B9114981F8860100BF10A00AF087FC11A00AF084FC11A00AF064
:207F600081FC18A00AF07EFC0DE000BF09A00AF079FC0AA00AF076FC14A00AF073FC11A0B0
:207F80000AF070FC00BF00BF10BD00003C030020741000201B5B303B33326D00494E464F4E
:207FA000203A20002A2A2053544F50204144564552544953494E47202A2A20200D0A0D0A4B
:207FC000000000001B5B306D000000002A2A2053544F50204144564552544953494E472054
:207FE0002A2A20204661696C6564200D0A0D0A0010B50021012007F035FF10BD2DE9F04114
:2080000088B005464FF04208012D04D1404806884048078803E04FF4C8664FF47A67022D7D
:208020001BD13D4890F89000012804D03A4890F89000022811D108F0E3FE8046B8F1000FBD
:2080400007D100BF35A00AF00DFC36A00AF00AFC03E041463CA00AF005FC2F4880F89050CB
:208060004348807B04090A2C04DA04F130004149887203E004F137003E4988723C48807BA1
:2080800000F00F040A2C04DA04F130003949C87203E004F137003749C8723548C07B04095A
:2080A0000A2C04DA04F130003249087303E004F13700304908732E48C07B00F00F040A2CA4
:2080C00004DA04F130002B49487303E004F13700284948730022104829300F4991F8281047
:2080E000CDE904022348069203910E211346CDE9002102903A463146002008F0F2FD804678
:208100001D490E2008F0A0FE804608B0BDE8F081D0030020D20300203C0300201B5B306D47
:20812000000000005375636365737366756C6C792053746F7070656420416476657274694C
:2081400073696E67200A0D0053746F70204164766572746973696E67204661696C6564206C
:208160002C20726573756C743A202564200A0D0074100020380000204600002070B5054628
:2081800015B1012D0AD104E00724204607F06CFD05E00724204607F091FD00E000BF00BFE2
