:020000040800F2
:10700000583E00201573000825D50008D1C9000896
:1070100021D50008B9830008F5FE00080000000033
:1070200000000000000000000000000031E800083F
:10703000F184000800000000F5DB0008F1E800081A
:107040002F73000899D900082F73000851DF00083A
:107050002F7300082F7300080B850008498500086E
:10706000538500085D8500086785000835840008A1
:107070002F7300082F7300082F7300082F73000868
:107080002F7300082F730008F97A00082F73000887
:107090002F7300082F7300082F73000871850008F4
:1070A0002F7300082F7300082F7300082F73000838
:1070B0002F7300082F7300082F7300082F73000828
:1070C0002F7300082F7300082F7300082F73000818
:1070D00085FB00082F7300082F7300082F7300082A
:1070E00015850008A1DE00082F7300082F73000823
:1070F00019CD000821CD00082F730008A1D2000887
:107100002F7300082F7300082F7300082F730008D7
:107110002F7300082F7300082F7300082F730008C7
:107120002F7300082F7300082F7300082F730008B7
:107130002F7300082F7300082F7300080000000051
:10714000DCF501085A02012A030104240101012887
:107150000B09534D54435F544B525F0105160DFF0D
:107160000183321039510341093D5AFF0101146A6C
:1071700011984438010872124B612F1072194B1D7F
:10718000E71081E9EDE91015FF8F0C081254024C4D
:10719000400916C401410A555CA80B4B300158093F
:1071A0001A705972A10A64387C092AA401FF01FFF0
:1071B0000176000001FF01FF01FF01FF01FF01FF58
:0C71C00001FF01FF01FF01FF015600006C
:020000040800F2
:10730000DFF80CD000F0A8FB004800473D6B0108F7
:10731000583E00200648804706480047FEE7FEE743
:10732000FEE7FEE7FEE7FEE7FEE7FEE7FEE7FEE735
:10733000CDE90008017300082DE9F05F0546002043
:1073400092469B4688460646814640241BE02846D6
:1073500041464746224600F0A9F953465A46C01A0C
:10736000914110D311461846224600F016F82D1A06
:1073700067EB01084F4622460120002100F00DF87E
:1073800017EB00094E41201EA4F10104DFDC484642
:1073900031462A464346BDE8F09F202A04DB203AC6
:1073A00000FA02F1002070479140C2F1200320FA58
:1073B00003F3194390407047014610B509683C2219
:1073C000B1FBF2F302FB1313B1FBF2F11D480360B2
:1073D000B1FBF2F302FB1313B1FBF2F1182243608D
:1073E000B1FBF2F302FB1313B1FBF2F183600A1D50
:1073F0000723B2FBF3F403FB142282618A0040F2FC
:10740000B55102F66C32B2FBF1F344334361B2FB87
:10741000F1F301FB13218908C1613B2903D3027DEC
:10742000920700D0491C0022074C13460261E25C1F
:107430008A4203D8891A5B1C0361F8E7491CC160C2
:1074400010BD00002C2E00208CF2010810B540EA7F
:1074500001040346A40703D009E010C9121F10C39A
:10746000042AFAD203E011F8014B03F8014B521E33
:10747000F9D210BDD2B201E000F8012B491EFBD2B7
:1074800070470022F6E710B513460A46044619462F
:10749000FFF7F0FF204610BD421C10F8011B002929
:1074A000FBD1801A70472DE9F04D81EA030404F006
:1074B000004B21F0004514464FF0000A23F0004134
:1074C00050EA050220D054EA01021DD0C5F30A5744
:1074D0000246C5F31303C1F31300C1F30A5640F487
:1074E000801543F48013A7EB0608101BD64608F25C
:1074F000FD3873EB050002D308F1010801E0921892
:107500005B41B8F1000F03DA00200146BDE8F08DC1
:1075100000204FF48011064684460EE0171B73EBE3
:10752000050705D3121B63EB050306434CEA010C68
:1075300049084FEA300092185B4150EA0107EDD14B
:1075400052EA030012D082EA040083EA05010843EC
:1075500005D0101BAB4106D20122002306E0002219
:107560004FF0004302E06FF0010253101AEB0600E7
:107570004CEB085110EB0A0041EB0B01BDE8F04D5C
:1075800000F0DBB80EB5C10F80EAE0700844CA070E
:10759000002140F233438DE80E000A460B4600F00E
:1075A000DBF803B000BD0EB540F23341029100217B
:1075B000CDE900110A460B4600F0CEF803B000BD3D
:1075C000C1F30A5210B5C1F3130140F2FF3341F485
:1075D00080119A4201DA002010BD40F233439A42F2
:1075E000A2F2334203DC524200F060F810BD90403A
:1075F00010BD00F0004230F000400AD0C10D01F58E
:107600006071C0F3160042EA0151C20840071143FD
:10761000704700200146704730B5041E71F1000428
:1076200004DB4FF00044404264EB0101141E73F18F
:10763000000405DB1C464FF00043524263EB040399
:10764000994208BF904230BD01F0004330B421F0B0
:10765000004150EA010206D00A0DA2F56072C1F3A2
:107660001301002A02DC30BC00207047440F44EABA
:10767000C104C100E01830BC00EBC25000F026B8D5
:1076800030B50B46014600202022012409E021FAF2
:1076900002F59D4205D303FA02F5491B04FA02F5EF
:1076A0002844151EA2F10102F1DC30BD202A04DBC2
:1076B000203A21FA02F00021704721FA02F3D0406B
:1076C000C2F1200291400843194670470029A8BF23
:1076D0007047401C490008BF20F00100704710B4FB
:1076E000B0FA80FC00FA0CF050EA010404BF10BCB0
:1076F000704749B1CCF1200421FA04F411FA0CF1DD
:1077000018BF012121430843A3EB0C01CB1D4FEA15
:1077100000614FEA102042BF002010BC704700EB10
:10772000C35010440029A4BF10BC7047401C49003E
:1077300008BF20F0010010BC704710B5141E73F193
:10774000000408DA401C41F1000192185B411A4321
:1077500001D120F0010010BD2DE9F04D92469B466D
:1077600011B1B1FA81F202E0B0FA80F22032904613
:10777000FFF713FE04460F4640EA0A0041EA0B01F8
:1077800053465A46084313D0114653EA010019D014
:10779000C8F140025046FFF789FF05460E465046A5
:1077A00059464246FFF7F9FD084305D0012004E0A1
:1077B00020463946BDE8F08D0020054346EAE076D4
:1077C0002C4337430A986305E40AA0EB0800002223
:1077D000FD0A44EA47540A3002D500200146E9E791
:1077E000010510196941DDE9084500196941BDE845
:1077F000F04DA2E72DE9FE4F804681EA0300C00F5D
:107800000C46009021F0004123F00045B8EB020047
:10781000A94105D24046214690461C460B460246E9
:1078200023F00040104347D0270DC7F30A00C3F3ED
:107830000A510290401A019040286BDAC3F31300FA
:1078400040F4801B0098924620B10023D2EB030A3B
:1078500063EB0B0B01985946C0F140025046FFF70D
:107860009CFD06460D4650465946019A00F006F921
:1078700010EB08006141002487EA115284EAE773A3
:107880001A4340D0009A62B3019A012A4FEA075284
:1078900015DC001B61EB02014FF0004202EA0752C7
:1078A000CDE90042001C41F5801132462B46FFF71E
:1078B00053FF03B0BDE8F08F40462146F9E7001BB7
:1078C00061EB0201001C41F5801300185B41201898
:1078D000A2F5001747EB030140EAD570B6196D41D8
:1078E00011E06D084FEA360645EAC0754FEA0752C7
:1078F000001B61EB0201001C41F5801149084FEAB1
:1079000030000019514132462B4603B0BDE8F04F1C
:10791000FFF713BF0098012240000023D0EB0202C2
:1079200063EBE073009821464FEAE074B8EB000087
:1079300061EB0401E9E783F000435BE781F000417C
:1079400058E72DE9FE4F81EA030404F0004421F0DA
:10795000004100944FF0000B23F0004350EA010473
:107960005ED052EA03045BD0C3F30A54C1F30A5554
:107970002C44A4F2F3340194A0FB0254C1F313018C
:1079800041F48011C3F3130343F4801301FB024459
:1079900000FB034E840A970A44EA815447EA83575E
:1079A000A4FB076802958D0A05FB07854FEA932C17
:1079B00004FB0C542705029D4FEA065847EA163788
:1079C000B5EB08056EEB070C870E920E47EA8117A0
:1079D00042EA8312A7FB0201B6EB0B0164EB000441
:1079E0002B0D43EA0C335E1844EB1C50DA4651462B
:1079F000E7FB0201C5F313044FEA0B3343EA1453C8
:107A00004FEA0432019C43EA0603A4F10C040294F9
:107A1000009CCDE900B4FFF79FFE03B0BDE8F08FF6
:107A200000200146F9E7C1F30A52C1F3130140F205
:107A3000FF3341F480119A4202DA00200146704778
:107A400040F233439A42A2F2334202DC5242FFF741
:107A50002DBEFFF7A2BC0000064C074D06E0E06813
:107A600040F0010394E8070098471034AC42F6D385
:107A7000FFF74AFCACF50108DCF50108202A06DB1B
:107A8000CB17203A41FA02F043EAE07306E041FAEC
:107A900002F3D040C2F120029140084319467047DA
:107AA00070B58C1810F8015B15F0070301D110F8C0
:107AB000013B2A1106D110F8012B03E010F8016BED
:107AC00001F8016B5B1EF9D12B0705D40023521E70
:107AD0000DD401F8013BFAE710F8013BCB1A921CD8
:107AE00003E013F8015B01F8015B521EF9D5A142D6
:107AF000D8D3002070BD000010B5024801F0ECF8AA
:107B000010BD00004C2D002070B50546AC6A606DBC
:107B100000F0500098BB606D40F400706065206814
:107B2000006800F00800A8B1206805F033F910B330
:107B30002068C06800F40050E8B9606D20F48070DF
:107B40006065606D00F48050A8B9606D40F0010080
:107B5000606510E02068C06800F0020058B9606DF0
:107B600020F480706065606D00F4805018B9606D1D
:107B700040F001006065204601F0A6F80CE0FFE748
:107B8000606D00F0100018B1204601F0A4F803E089
:107B9000E06C416B2846884770BD70B50546AC6AFD
:107BA000606D40F040006065A06D40F00400A0658D
:107BB000204601F090F870BD70B50446A56A2846CD
:107BC00001F088F870BD000070B50446206805F02B
:107BD000CDF80646206805F0CEF870B36EBB20687D
:107BE000806800F00D0001280AD120688168174ADA
:107BF0001140891C816000BF03202168086009E0F2
:107C0000606D40F010006065A06D40F00100A0655F
:107C1000012070BD01F0BAFF05460FE001F0B6FF8C
:107C2000401B02280AD9606D40F010006065A06D0D
:107C300040F00100A0650120EBE705E020688068C6
:107C400000F001000028E9D10020E2E7C0FFFF7F3B
:107C500070B50446206805F08EF888BB20688068FF
:107C60001849084048B1606D40F010006065A06D93
:107C700040F00100A065012070BD206805F060F8AB
:107C800001F084FF054615E0206805F074F810B98E
:107C9000206805F055F801F079FF401B022809D94A
:107CA000606D40F010006065A06D40F00100A065BF
:107CB0000120E1E72068006800F001000028E3D01F
:107CC0000020D9E73F0000807047000000B587B072
:107CD0001C2205496846FFF7B9FB06F091FF68468C
:107CE00006F04DF907B000BDF8EF010800B585B00A
:107CF00014216846FFF7C5FB002002900320019085
:107D00004FF460400090012005F099F869464FF06B
:107D1000904001F053FE012005F081F818200090FA
:107D2000022005F08CF86946084801F047FE022061
:107D300005F075F801F014FB01F02AFB01F01CFBC3
:107D400000F006F8FFF7C0FF05B000BD00040048D2
:107D5000F0B585B014216846FFF793FB0025002697
:107D60000027002427E0344800EBC400807900B3EA
:107D7000314850F83400B0F1904F06D02F490844F4
:107D800048B1B0F5806F12D10BE02B4800EBC40076
:107D9000808805430CE0284800EBC4008088064337
:107DA00006E0254800EBC4008088074300E000BFE0
:107DB00000BF601CC4B2222CD5DB00200290012041
:107DC0000190032003908DB10095012005F037F854
:107DD000012005F0AFF869464FF0904001F0EEFD4C
:107DE000002229464FF0904001F0CBFE8EB1009664
:107DF000022005F024F8022005F09CF869460F489F
:107E0000404201F0DBFD002231460C48404201F0C7
:107E1000B8FE7FB10097042005F011F8042005F0AA
:107E200089F86946064801F0C9FD00223946044830
:107E300001F0A7FE05B0F0BDE8EE010800FCFFB7B9
:107E40000008004810B506F0FDFD0649002004F0CA
:107E5000EFFCFFF74BFF0121084607F0CFFE09F0CA
:107E6000FFF910BDA82C0020704710B50446FFF79D
:107E70002DFF00F005F80021012007F0BFFE10BD26
:107E800000B58DB030221F4901A8FFF7DFFA00F0DE
:107E900083FA0121022007F0B1FE1B4A00210420D1
:107EA00007F0F6FE01A806F05CF800F0C3F906F052
:107EB0003BFC0020154981F890004FF6FF70C88404
:107EC000134A0021012007F0E3FE202011498871A8
:107ED000062009F031F905F067FB00200B4981F815
:107EE000290081F8280080200B490880A0200B4938
:107EF000088001200A4981F88A0100F07FF80DB05E
:107F000000BD000054F00108B93101083C03002015
:107F1000257F000846000020D0030020D203002067
:107F20007410002010B501200BF043FB174890F8A7
:107F30009000052828D0002408F070FF0446002097
:107F4000124981F8900084B9114981F88A0100BF73
:107F500010A00AF09FFC11A00AF09CFC11A00AF0EE
:107F600099FC18A00AF096FC0DE000BF09A00AF0E9
:107F700091FC0AA00AF08EFC14A00AF08BFC11A060
:107F80000AF088FC00BF00BF10BD00003C030020C9
:107F9000741000201B5B303B33326D00494E464F5E
:107FA000203A20002A2A2053544F5020414456455D
:107FB00052544953494E47202A2A20200D0A0D0ABF
:107FC000000000001B5B306D000000002A2A2053D7
:107FD000544F50204144564552544953494E47202E
:107FE0002A2A20204661696C6564200D0A0D0A006A
:107FF00010B50021012007F035FF10BD2DE9F0413B
:1080000088B005464FF04208012D04D1404806884B
:108010004048078803E04FF4C8664FF47A67022DA2
:108020001BD13D4890F89000012804D03A4890F8C0
:108030009000022811D108F0F1FE8046B8F1000F3F
:1080400007D100BF35A00AF025FC36A00AF022FCBB
:1080500003E041463CA00AF01DFC2F4880F89050F8
:108060004348807B04090A2C04DA04F130004149BA
:10807000887203E004F137003E4988723C48807BF7
:1080800000F00F040A2C04DA04F130003949C872F8
:1080900003E004F137003749C8723548C07B040952
:1080A0000A2C04DA04F130003249087303E004F1C9
:1080B0003700304908732E48C07B00F00F040A2CAB
:1080C00004DA04F130002B49487303E004F137006F
:1080D000284948730022104829300F4991F8281088
:1080E000CDE904022348069203910E211346CDE9FF
:1080F000002102903A463146002008F000FE8046FA
:108100001D490E2008F0AEFE804608B0BDE8F081A3
:10811000D0030020D20300203C0300201B5B306D05
:10812000000000005375636365737366756C6C794A
:108130002053746F70706564204164766572746951
:1081400073696E67200A0D0053746F702041647666
:108150006572746973696E67204661696C65642035
:108160002C20726573756C743A202564200A0D000A
:1081700074100020380000204600002070B505462D
:1081800015B1012D0AD104E00724204607F06CFD4B
:1081900005E00724204607F091FD00E000BF00BF86
:1081A00070BD70B504462546696801F1080006F007
:1081B000F9FA064616B10120287001E00020287067
:1081C00070BD7047704700002DE9F04100BF1648B0
:1081D00000680646701CE0B100BF1348001D00682F
:1081E0006FF07F4101EA102800BF00BF0E48001D5C
:1081F000077800BF0D490E70300A4870300C887047
:108200000846C77081F804804FEA182048710D466F
:1082100007E0002005F0A0F904460CB1254600E077
:10822000034D2846BDE8F0818075FF1F2E00002019
:108230002CF001082DE9F0418CB0002006900AF0E6
:108240003BFFFFF7C1FF044622460621002008F04D
:10825000CEFF60794649087220794872E0788872CA
:10826000A078C87260780873207848734EF66E5014
:10827000089000BF3F480068079007AA06212E20FB
:1082800008F0B5FF3C4A1021182008F0B0FF3B4A27
:108290001021082008F0ABFF1821012008F078FF1A
:1082A00008F0E3FE002646F00106002E19DD34A793
:1082B00009A80AA90BAB0D22CDE900100021304618
:1082C00008F058FC3846FFF7E7F800F0FF0843468F
:1082D00000220097BDF82810BDF82C0008F0EAFE37
:1082E00000BF06A8022300220090BDF82410BDF8AC
:1082F0002C0008F0DFFE0222114600200AF095FE55
:10830000032023490870087808F05CFD012020490B
:1083100048700020C870082048751020887500201B
:1083200008751C48886101208870002504E0184801
:10833000001D4555681CC5B2102DF8DB00231448FC
:108340008169007D124A927D02AF0BC701921048ED
:10835000407D0F4A009051789078012208F082FC0D
:108360000B48807808B108F0E1FB0CB0BDE8F08163
:10837000460000208075FF1F32F0010842F001081E
:10838000534D54435F545241434B4552000000004B
:108390003C03002007B201001CB5044800900448CB
:1083A0000190694603480AF0F3FD1CBD2400032038
:1083B0007D810008A381000800BFFEE77047000030
:1083C00010B5044654B90B48006818B1002009499B
:1083D0000968884700200849087009E0012006491B
:1083E00008700448006818B10120024909688847EC
:1083F00010BD0000980000200005002010B50020EE
:1084000005F0AAF8044674B1A0790749074A11603B
:108410004FF0B041D1F89C1021F47C5141EA002189
:10842000116000BF00BF10BDFECAFECA9C0000580C
:108430007047000010B5024800F0F8FF10BD0000C2
:10844000B02D00200F4B02689A4206D2426C92086F
:108450000D4B03EB8202826406E0426C92080A4BE9
:108460001C3303EB820282640278083A1423B2FBC5
:10847000F3F1054A8032C26401F01C0301229A40E4
:1084800002657047080402400008024001794A1E54
:10849000064B03EB82024265044A403282654A1E63
:1084A00002F0030301229A40C265704700090240AE
:1084B00030B5D0E913546C60446D14B1D0E9165452
:1084C0006C6090F8444004F01C050124AC40056C3D
:1084D0006C60046863608468102C04D10468A26036
:1084E0000468E16003E00468A1600468E26030BDF4
:1084F000704700005020034909688143014A116018
:1085000000BF704790080058704710B5012001F077
:1085100047FA10BD10B54FF4806001F041FA4FF4F6
:10852000006001F03DFA4FF4805001F039FA4FF449
:10853000005001F035FA4FF4804001F031FA4FF469
:10854000004001F02DFA10BD10B5022001F028FA0C
:1085500010BD10B5042001F023FA10BD10B508209D
:1085600001F01EFA10BD10B5102001F019FA10BD6F
:1085700010B5202001F014FA402001F011FA8020FB
:1085800001F00EFA4FF4807001F00AFA4FF4007017
:1085900001F006FA10BD00000348406940F2FA718C
:1085A0008843014948617047004000581E480068F0
:1085B00000F40070B0F5007F16D11B48006820F46D
:1085C00000701949086000BF0846006840F4006068
:1085D00008600846006820F40060086000BF084694
:1085E000006840F4007008600F48006800F4806084
:1085F000B0F5806F16D10C48006820F480600A49FD
:10860000086000BF0846006840F4805008600846D3
:10861000006820F48050086000BF0846006840F4FD
:1086200080600860704700000040005806494969B2
:1086300021F4FF61022202EBC00242F480321143B6
:10864000014A5161704700000040005810B50849C8
:10865000496941F00101064C6161026000BF00BF41
:1086600000BFBFF36F8F00BF00BF00BF436010BDEE
:1086700000400058F0B50246802314460D46104EC7
:10868000766946F480260E4F7E6100BFEFF31086B8
:10869000304672B600BF2E682660241D2D1D5E1E5A
:1086A000F3B2002BF7D100BF054E3669C6F3004682
:1086B000002EF9D100BF80F3108800BFF0BD00008C
:1086C0000040005870B5054601F060FA064606E025
:1086D00001F05CFA801BA84201D3032070BD1E4844
:1086E000006900F48030B0F5803FF1D01A48046989
:1086F00004F0010020B100BF01201749086100BF4C
:108700004CF2FA30044000BF04F0404030B112484F
:10871000806904F0404108430F49886124F04040DB
:1087200018B124F040400C49086100BF1CB10B484F
:1087300044600120D2E706E001F028FA801BA8423D
:1087400001D30320CAE70448006900F48020B0F593
:10875000802FF1D00020C1E700400058800F00209A
:10876000F8B504460D460020009000BF94F8500074
:10877000012801D10220F8BD012084F8500000BF7B
:108780002046FFF721FA06468EBB606D20F4885024
:1087900040F002006065206881681B4A114005F0C6
:1087A000804242F000421143816000BF13E0009814
:1087B000401C00901549009888420CD3606D20F051
:1087C000020040F01000606500BF002084F85000F7
:1087D00000BF0120CFE720688168C90F0029E6D1DA
:1087E000606D20F0020040F00100606504E0FFE7EA
:1087F000606D40F01000606500BF002084F85000FC
:1088000000BF3046B7E70000C0FFFF3FAB6A020081
:108810007047704770477047704700002DE9F84F68
:1088200005460C464FF0000A00200090F949E06828
:10883000884200D000E000BF00BF95F8500001283A
:1088400002D10220BDE8F88F012085F8500000BF5A
:10885000286804F09AFA002872D12968D4E9002027
:1088600001F1300CC0F3012B0CEB8B03D3F800C0EB
:1088700000F01F0E4FF01F0B0BFA0EFB2CEA0B0C37
:1088800000F01F0BC2F3846E0EFA0BFE4CEA0E0CC6
:10889000C3F800C000BF286804F077FA8146286852
:1088A00004F05FFA8046B9F1000F2AD1B8F1000F49
:1088B000FBD1A2682168286804F07EFA6069296803
:1088C000C968C1F3C101490000FA01F72069042811
:1088D00018D028682268216900F1600C0CEB810334
:1088E000D3F800C0DFF830B30CEA0B0C02F0F84B01
:1088F0004BF0004B4BEA070B4CEA0B0CC3F800C0E3
:1089000000BFA8E00021286804F022FAC0F312009A
:1089100030B90021286804F01BFAC0F3846007E036
:108920000021286804F014FA90FAA0F0B0FA80F060
:108930002168C1F3120121B92168C1F3846105E006
:10894000ACE1216891FAA1F1B1FA81F1884204D138
:1089500000221146286804F049FA0121286804F031
:10896000F7F9C0F3120030B90121286804F0F0F9DA
:10897000C0F3846007E00121286804F0E9F990FA67
:10898000A0F0B0FA80F02168C1F3120119B9216892
:10899000C1F3846104E0216891FAA1F1B1FA81F197
:1089A000884204D100220121286804F01FFA022124
:1089B000286804F0CDF9C0F3120030B9022128680C
:1089C00004F0C6F9C0F3846007E00221286804F0CF
:1089D000BFF990FAA0F0B0FA80F02168C1F312015B
:1089E00019B92168C1F3846104E0216891FAA1F109
:1089F000B1FA81F1884204D100220221286804F0F2
:108A0000F5F90321286804F0A3F9C0F3120030B986
:108A10000321286804F09CF9C0F3846007E0032177
:108A2000286804F095F990FAA0F0B0FA80F0216877
:108A3000C1F3120119B92168C1F3846104E021680E
:108A400091FAA1F1B1FA81F1884204D10022032107
:108A5000286804F0CBF9286804F08DF9002872D159
:108A60002868E2682168D0F8B030C1F3120C23EA1C
:108A70000C0302F0180BDFF8A4C12CFA0BFC0CEA73
:108A8000010C43EA0C03C0F8B03000BF6149E06854
:108A900088427DD12368C3F312031BB92368C3F353
:108AA000846304E0236893FAA3F3B3FA83F35B1CB3
:108AB00003F01F03092B3ED82368C3F312031BB92D
:108AC0002368C3F3846304E0236893FAA3F3B3FA3F
:108AD00083F35B1C03F01F034FF0010C0CFA03FC43
:108AE0002368C3F312031BB92368C3F3846304E050
:108AF000236893FAA3F3B3FA83F35B1C03F01F0319
:108B00004CEA836C2368C3F312031BB92368C3F3D5
:108B1000846304E0236893FAA3F3B3FA83F35B1C42
:108B200003F01F0303EB43034FF0000B4BEA035327
:108B30004CEA030341E02368C3F3120323B923681B
:108B4000C3F3846305E077E0236893FAA3F3B3FAF1
:108B500083F35B1C03F01F034FF0010C0CFA03FCC2
:108B60002368C3F312031BB92368C3F3846304E0CF
:108B7000236893FAA3F3B3FA83F35B1C03F01F0398
:108B80004CEA836C2368C3F312032BB9236800E01B
:108B900018E0C3F3846304E0236893FAA3F3B3FA01
:108BA00083F35B1C03F01F030A3B03EB43034FF00B
:108BB000007B4BEA03534CEA03031946A26828687A
:108BC00004F0FAF8164920680840A8B300BF154819
:108BD000806800F0E07600BF134804F0CCF860BB7A
:108BE00012492068884230D106F4000068BB0E4963
:108BF0002868884258D146F400010A4804F0F0F889
:108C00000B4800680B49B0FBF1F000EB400080001E
:108C1000009016E000007F4000F0FF03FFFF070018
:108C2000000008800003045000000450000052C7F8
:108C300068000020400D030017E028E00098401E67
:108C4000009000980028F9D12EE01B492068884246
:108C50000CD106F0807048B918492868884223D1A1
:108C600046F08071164804F0BBF81DE015492068F5
:108C7000884219D106F48000B0B9104928688842AA
:108C800012D146F480010E4804F0AAF80CE0686D99
:108C900040F0200068654FF0010A05E0686D40F083
:108CA000200068654FF0010A00BF002085F85000E1
:108CB00000BF5046C6E50000000084CB0000045011
:108CC00000030450010000800121014A1170704727
:108CD0003A030020704770472DE9F04704464FF0F3
:108CE000000A206805682068466805F0020002282E
:108CF00011D106F0020002280DD1606D00F01000C5
:108D000018B9606D40F4006060652046FFF780FD93
:108D100002202168086005F00400042803D106F051
:108D20000400042807D005F00800082841D106F007
:108D3000080008283DD1606D00F0100018B9606D82
:108D400040F400706065206804F024F810B32068D7
:108D5000C06800F40050B0F5005F24D020680068BF
:108D600000F0080008281ED1206804F00EF890B921
:108D70002068406820F00C0021684860606D20F495
:108D800080706065606D00F4805018B9606D40F0CF
:108D90000100606507E0606D40F010006065A06D47
:108DA00040F00100A0652046FFF78EFF0C202168EF
:108DB000086005F02000202803D106F020002028BC
:108DC00007D005F04000402856D106F0400040286A
:108DD00052D1606D00F0100018B9606D40F4005081
:108DE00060652068C16C01F0C00109B9012100E093
:108DF0000021894600BF206803F0CCFF07462068A9
:108E0000D0F80C80B9F1000F06D108F0007020BB3B
:108E10001FB308F4005000BB2068006800F0400059
:108E2000402823D12068C06800F40010A8B9206849
:108E300003F097FF90B92068406820F06000216837
:108E40004860606D20F480506065606D00F4807053
:108E500018B9606D40F00100606507E0606D40F09A
:108E600010006065A06D40F00100A0652046FFF78E
:108E7000D0FC60202168086005F0800080280DD1BA
:108E800006F08000802809D1606D40F48030606574
:108E9000204600F06BF980202168086005F480709E
:108EA000B0F5807F0FD106F48070B0F5807F0AD1D5
:108EB000606D40F4003060652046FFF7ACFC4FF475
:108EC00080702168086005F40070B0F5007F0FD154
:108ED00006F40070B0F5007F0AD1606D40F4802088
:108EE00060652046FFF798FC4FF400702168086029
:108EF00005F01000102820D106F0100010281CD119
:108F0000606B10B94FF0010A06E02068C16801F0FB
:108F1000030109B14FF0010ABAF1010F0AD1606DE6
:108F200040F480606065A06D40F00200A0652046BE
:108F3000FFF7D1FE10202168086005F48060B0F5CD
:108F4000806F13D106F48060B0F5806F0ED1606D34
:108F500040F480406065A06D40F00800A0654FF4CB
:108F60008060216808602046FFF754FCBDE8F08768
:108F70002DE9F84304464FF000090020009014B991
:108F80000120BDE8F883206920B12020005D012880
:108F900000D100BF606D30B9204600F0E9F8002034
:108FA000A06584F8500020688168C1F3407131B138
:108FB00020688168664A1140816000BF00BF206858
:108FC00003F0DEFEA0B920688168624A114041F0DA
:108FD0008051816000BF604800686049B0FBF1F0DB
:108FE000009002E00098401E009000980028F9D1FF
:108FF000206803F0C5FE48B9606D40F01000606560
:10900000A06D40F00100A0654FF00109206803F059
:10901000BCFE0646606D00F0100000287ED1002ED8
:10902000FCD1606D20F4807040F002006065206823
:1090300003F0A1FE68B94A4803F09DFE48B9606894
:109040004849896821F47C110143464A916000BF78
:1090500000BF607E616B41EA4030E1680843A1686F
:1090600008432021095D40EA01452020005D0128D8
:1090700003D1A08C401E45EA4045A06A28B1208D4E
:1090800000F47070E16A084305432068C0683649FF
:10909000084028432168C860206803F076FE8046B7
:1090A000206803F05EFE0746B8F1000F2CD127BB05
:1090B000207E002141EA803194F8300041EA4005E9
:1090C0002068C06844F20201884328432168C860D0
:1090D00094F83800012811D1E06B40F00101206CB8
:1090E0000843616C0843A16C08432168096940F298
:1090F000FC72914308432168086105E0206800691B
:1091000020F0010021680861206901280BD1206846
:10911000006B20F00F00E169491E00E010E00843F9
:109120002168086305E02068006B20F00F002168CB
:109130000863606D20F0020040F00100606505E00A
:10914000606D40F0100060654FF00109484618E777
:10915000C0FFFF5FC0FFFF7F68000020400D0300DD
:10916000000004500003045007C0F0FF70470000E7
:1091700010B596B004464FF4806002904FF0405016
:10918000119002A801F07CFB08B109F0A9F94FF495
:1091900000504FF0B041C96C01434FF0B042D16470
:1091A0001146C96C0140019100BF00BF1748184922
:1091B000886605211648C166002101674167802144
:1091C00081674900C1678900C0F880102021C0F87C
:1091D00084100902C0F88810683000F0A7F908B1BF
:1091E00009F07EF900BF0A4868300949086564380B
:1091F000C1F8900000BF00221146122001F0FAF9D8
:10920000122001F0D5F916B010BD00000800024090
:10921000482D002070B50446206803F0B6FD78BBE9
:1092200000BF94F85000012801D1022070BD012038
:1092300084F8500000BF2046FEF70AFD054605BB36
:10924000606D40F60161884340F480706065606D38
:1092500000F48050B0F5805F04D1A06D20F00600CE
:10926000A06501E00020A0651C202168086000BF07
:10927000002084F8500000BF206803F095FD06E050
:1092800004E000BF002084F8500000E002252846DA
:10929000CCE700002DE9F04104460E461746206851
:1092A00003F073FD002852D100BF94F8500001284C
:1092B00002D10220BDE8F081012084F8500000BFF7
:1092C0002046FEF7C5FC0546002D3BD1606D40F6FB
:1092D0000161884340F480706065606D00F48050E7
:1092E00020B1A06D20F00600A06501E00020A0657F
:1092F0001848E16CC8621848E16C08631748E16CD3
:1093000048631C202168086000BF002084F85000DA
:1093100000BF2068406840F0100021684860206865
:10932000C06840F001002168C860226802F1400175
:109330003B463246E06C00F061F90546206803F0D8
:1093400033FD05E000BF002084F8500000E0022556
:109350002846AFE7097B0008B97B00089B7B000823
:1093600000BF0448406820F001000249486000BF87
:1093700070470000002004E000BF0448406820F06F
:1093800004000249486000BF70470000002004E06C
:1093900000BF0448406820F002000249486000BF56
:1093A00070470000002004E070B50446002594F8E2
:1093B0002500022803D00420E063012534E0206862
:1093C000006820F00E00216808602068006820F026
:1093D000010021680860A06C006820F48070A16C16
:1093E000086094F8440000F01C0101208840216CC2
:1093F0004860D4E913104860606D40B1606D00684A
:1094000020F48070616D0860D4E916104860012076
:1094100084F8250000BF002084F8240000BFA06B62
:1094200010B12046A16B8847284670BD70B5044630
:10943000206C05682068066894F8440000F01C0160
:10944000042088402840E0B106F00400C8B120683C
:10945000006800F0200028B92068006820F00400AF
:109460002168086094F8440000F01C010420884042
:10947000216C4860206B002856D02046216B88471D
:1094800052E094F8440000F01C010220884028407B
:1094900018B306F0020000B32068006800F0200056
:1094A00040B92068006820F00A00216808600120A7
:1094B00084F8250094F8440000F01C010220884044
:1094C000216C486000BF002084F8240000BFE06ADF
:1094D00050B32046E16A884726E094F8440000F043
:1094E0001C01082088402840F0B106F00800D8B1DF
:1094F0002068006820F00E002168086094F844009D
:1095000000F01C0101208840216C48600120E063CC
:1095100084F8250000BF002084F8240000BF606BA1
:1095200010B12046616B884770BD000070B50446DD
:109530000CB9012070BD2F49206888420BD22E49FA
:109540002068401A1421B0FBF1F0800060642A48C2
:10955000083820640AE027492068401A1421B0FB2B
:10956000F1F080006064234808382064022084F809
:1095700025002068056847F6F0708543D4E90201AC
:1095800008432169084361690843A1690843E16907
:109590000843216A08430543206805602046FEF71A
:1095A00051FFA068B0F5804F01D1002060602079A4
:1095B000A16C0860D4E913104860606860B160680D
:1095C000042809D82046FEF761FF0020616D08607D
:1095D000D4E91610486003E000206065A065E065EE
:1095E0000020E063012084F82500002084F8240096
:1095F00000BF9FE708040240080002402DE9F04147
:1096000004460D4616461F464FF0000800BF94F86A
:109610002400012802D10220BDE8F081012084F855
:10962000240000BF94F8250001283FD1022084F8CF
:1096300025000020E0632068006820F00100216818
:1096400008603B46324629462046FEF731FF206B34
:1096500030B12068006840F00E00216808600BE01F
:109660002068006820F00400216808602068006815
:1096700040F00A0021680860A06C006800F48030A7
:1096800028B1A06C006840F48070A16C0860606D27
:1096900028B1606D006840F48070616D08602068DA
:1096A000006840F001002168086006E000BF00206B
:1096B00084F8240000BF4FF002084046ACE70000E9
:1096C00070B5044600F062FA06462546681C10B1E3
:1096D00000F062FA05440AE000BF0848006820F084
:1096E00004000649086000BF00BF00BF30BF00F0A3
:1096F0004DFA801BA842EFD370BD000010ED00E0D2
:109700002DE9F04104460F4600BF1B4800780128B0
:1097100002D10220BDE8F08101201749087000BF86
:10972000002048604FF47A70FEF7CCFF0646E6B999
:109730002068022817D1C01E386065680BE02846F3
:10974000FEF774FF4FF47A70FEF7BCFF06460EB1C9
:109750003D6005E06D1CD4E901010844A842EED843
:1097600000BFFEF719FFFEF721FF00BF00200249EE
:10977000087000BF3046CDE7800F0020002006496A
:10978000496941F00041044A51611146496901F0BB
:10979000004101B901207047004000582DE9F04117
:1097A0000646884614461D4600BF18480078012822
:1097B00002D10220BDE8F08101201449087000BFE9
:1097C000002048604FF47A70FEF77CFF0746AFB97F
:1097D000012E05D122462B464046FEF737FF03E017
:1097E00021464046FEF746FF4FF47A70FEF76AFFC7
:1097F000074607484069B0430549486100BF00205B
:109800000249087000BF3846D4E70000800F0020EE
:109810000040005800200849496901F0004151B159
:109820000649054A9160064991601146496901F06F
:10983000004101B1012070470040005823016745F5
:10984000AB89EFCDF0B50B46002178E001258D40C6
:1098500005EA0302002A71D03B4D8E0855F82640D8
:109860008D072E0F0F25B5402C40B0F1904F01D140
:10987000002514E0354DA84201D101250FE0344DFB
:10988000A84201D102250AE0324DA84201D10325A8
:1098900005E0314DA84201D1042500E007258E07DF
:1098A000360FB540A54223D12C4D2D6895432B4E44
:1098B0003560351D2D689543361D3560274D803D3B
:1098C0002D689543254E803E3560351D2D689543A6
:1098D000361D35608D072E0F0F2505FA06F41A4D3B
:1098E0008E0855F82650A543174E8F0846F8275086
:1098F00005684F000326BE4035430560CE0800F1E1
:10990000200555F826504E07F70E0F26BE40B543EA
:10991000CF0800F1200646F82750C5684F000326FF
:10992000BE40B543C560466801258D40AE434660E4
:1099300085684F000326BE40B5438560491C23FA65
:1099400001F5002D82D1F0BD08000140000400485F
:1099500000080048000C004800100048800800582B
:1099600070B505460024002D05DD02E06D10601C79
:10997000C4B2012DFAD1094850F8240068B1074853
:1099800050F82400806840B1044A52F824205068FE
:10999000024A52F824209168884770BD942B002019
:1099A00010B5044604480068204020B10248046015
:1099B0002046FFF7D5FF10BD0C08005870B50346D0
:1099C0000022BDE0012696400D6805EA0604002C41
:1099D00072D04D68012D08D04D68022D05D04D681C
:1099E000112D02D04D68122D13D198685600032511
:1099F000B540A8435600CD68B540284398605868E4
:109A000001259540A8430D79C5F3001595402843DD
:109A10005860D86856000325B540A84356008D68A5
:109A2000B5402843D8604D68022D02D04D68122DF4
:109A300013D1D60803F1200555F826005507EE0E80
:109A40000F25B540A8435607F60E0D69B5402843CB
:109A5000D60803F1200545F82600186856000325AE
:109A6000B540A8430D7905F003055600B5402843DD
:109A700018604D6805F08055B5F1805F5FD1334DBA
:109A8000960855F8260095072E0F0F25B540A843D8
:109A9000B3F1904F01D1002515E02D4DAB4201D11E
:109AA000012510E02B4DAB4201D102250BE02A4DE0
:109AB000AB4202D1032506E041E0284DAB4201D183
:109AC000042500E007259607360FB54028431F4DB3
:109AD000960845F82600224D2868A0434D6805F4F5
:109AE0008035B5F5803F00D120431D4D28602D1DE8
:109AF0002868A0434D6805F40035B5F5003F00D156
:109B00002043174D2D1D2860154D803D2868A0432A
:109B10004D6805F48015B5F5801F00D12043104D28
:109B2000803D28602D1D2868A0434D6805F4001570
:109B3000B5F5001F00D12043094D7C3D2860521C23
:109B40000D68D540002D7FF43DAF70BD0800014089
:109B50000004004800080048000C004800100048BD
:109B600080080058024613690B400BB1012000E049
:109B70000020704742690A400AB1816200E08161B9
:109B800070470AB1816100E0816270470148006856
:109B9000704700005C00002001480078704700001A
:109BA0006400002001480068704700006000002049
:109BB000024692F8410020282DD100BF92F84000C3
:109BC000012801D102207047012082F8400000BF27
:109BD000242082F841001068006820F0010013681A
:109BE00018601068006820F48050136818601068CE
:109BF00000680843136818601068006840F00100AE
:109C000013681860202082F8410000BF002082F80D
:109C1000400000BFD7E70220D5E710B502460B464B
:109C200092F8410020282AD100BF92F84000012874
:109C300001D1022010BD012082F8400000BF242085
:109C400082F841001068006820F00100146820606C
:109C50001068016821F4706141EA03211068016015
:109C60001068006840F0010014682060202082F82D
:109C7000410000BF002082F8400000BFDAE7022068
:109C8000D8E710B504460CB9012010BD242084F893
:109C900041002068006820F001002168086020462B
:109CA00000F00CFA0020606484F84100206384F81E
:109CB000420000BF84F8400000BF00BFE5E700009D
:109CC00010B504460CB9012010BD94F8410028B924
:109CD000002084F84000204600F04AFA242084F84E
:109CE00041002068006820F0010021680860606879
:109CF00020F07060216808612068806820F40040CE
:109D000021688860E068012805D1A06840F400401F
:109D10002168886004E0A06840F4044021688860FD
:109D2000E068022802D1800221684860206840680B
:109D300013490843216848602068C06820F4004047
:109D40002168C860D4E904010843A16940EA012000
:109D50002168C860D4E907010843216808602068C9
:109D6000006840F001002168086000206064202045
:109D700084F841000020206384F8420000BFA3E77C
:109D8000008000022DE9FC5F0446894692469B460E
:109D9000DDE90C780E9E94F8410020287ED117B1A1
:109DA000B8F1000F05D14FF4007060640120BDE8E8
:109DB000FC9F00BF94F84000012801D10220F6E783
:109DC000012084F8400000BFFFF7E0FE054619239C
:109DD0000122D1032046009502F016FF08B10120B0
:109DE000E5E7222084F84100402084F8420000206A
:109DF00060646762A4F82A8060635B465246494605
:109E00002046CDE9006502F069FE30B100BF0020B8
:109E100084F8400000BF0120C9E7608DFF280CD9FD
:109E2000FF2020853D48009094F828204FF0807353
:109E30004946204602F0CEFE0BE0608D2085374873
:109E4000009094F828204FF000734946204602F015
:109E5000C1FE00BF3346002204212046009502F0D7
:109E6000D3FE08B10120A2E72068406A616A087049
:109E7000606A401C6062208D401E2085608D401EFF
:109E80006085608D48B3208D38BB33460022802129
:109E90002046009502F0B8FE18B100E03CE0012039
:109EA00085E7608DFF280CD9FF20208500200090D9
:109EB00094F828204FF080734946204602F08AFE2D
:109EC0000BE0608D20850020009094F828204FF052
:109ED00000734946204602F07DFE608D0028B9D10E
:109EE0002A463146204602F0BEFE08B101205EE758
:109EF00020202168C861206840680949084021681D
:109F00004860202084F84100002084F8420000BF0F
:109F100084F8400000BF4AE7022048E700240080A0
:109F200000E800FE2DE9FC5F0446894692469B4608
:109F3000DDE90C780E9E94F8410020287DD117B100
:109F4000B8F1000F05D14FF4007060640120BDE846
:109F5000FC9F00BF94F84000012801D10220F6E7E1
:109F6000012084F8400000BFFFF710FE05461923CA
:109F70000122D1032046009502F046FE08B10120DF
:109F8000E5E7212084F84100402084F842000020C9
:109F900060646762A4F82A8060635B465246494663
:109FA0002046CDE9006502F0D7FD30B100BF0020AA
:109FB00084F8400000BF0120C9E7608DFF280CD95C
:109FC000FF2020850020009094F828204FF0807317
:109FD0004946204602F0FEFD0BE0608D2085002002
:109FE000009094F828204FF000734946204602F074
:109FF000F1FD00BF2A463146204602F05FFE08B15F
:10A000000120A4E7606A007821688862606A401CC9
:10A010006062608D401E6085208D401E2085608DB1
:10A0200040B3208D30BB334600228021204600956E
:10A0300002F0EAFD10B1012089E73AE0608DFF28C7
:10A040000CD9FF2020850020009094F828204FF0A4
:10A0500080734946204602F0BDFD0BE0608D2085EF
:10A060000020009094F828204FF0007349462046C5
:10A0700002F0B0FD608D0028BCD12A463146204652
:10A0800002F0F1FD08B1012061E720202168C861DC
:10A09000206840680849084021684860202084F80A
:10A0A0004100002084F8420000BF84F8400000BF57
:10A0B0004DE702204BE7000000E800FE70B50446C3
:10A0C00000252A492068096888420DD100BF4FF455
:10A0D000001002F002FF4FF4001002F006FF4FF4F0
:10A0E000001002F0E4FE12E020492068D1F8A81028
:10A0F00088420AD10225A80502F0EFFEA80502F069
:10A10000F4FEA80502F0D3FE01E008F0E9F9C5EB82
:10A11000C50202EB4202154B03EB820292F850207B
:10A1200002F00F0301229A40C5EBC50303EB430382
:10A130000E4E06EB830393F8523003F00F06012313
:10A14000B34042EA0301C5EBC50202EB4202074BF2
:10A1500003EB820292F8502002F0F0024FF090439D
:10A1600003EB8210FFF76EFB70BD0000240100209E
:10A1700030B585B004462F4920680968884226D149
:10A180002C4890F8500000F0F0004FF0904101EBA7
:10A190008015142228496846FDF758F9254890F89B
:10A1A000520000F00F0101208840224991F8501020
:10A1B00001F00F02012191400843009069462846B2
:10A1C000FFF7FCFB4FF4001002F079FE2FE0194975
:10A1D0002068D1F8A810884227D1164890F8F800D6
:10A1E00000F0F0004FF0904101EB8015142212496D
:10A1F00014316846FDF72AF90E4890F8FA0000F08D
:10A200000F01012088400B4991F8F81001F00F026E
:10A21000012191400843009069462846FFF7CEFB94
:10A220004FF4000002F04BFE01E008F059F905B0D0
:10A2300030BD00002401002014F20108034800682A
:10A240000349097808440149086070475C00002010
:10A250006400002010B500240948006840F48070B4
:10A2600007490860032000F003FA002000F00AF814
:10A2700008B1012401E000F04FF9204610BD0000B4
:10A280000040005870B50446002511480078D8B148
:10A2900000F0AEFD0E4909784FF47A72B2FBF1F18D
:10A2A000B0FBF1F6304601F0A6FE58B9102C07D2EB
:10A2B00000222146501E00F09DF90648046004E08B
:10A2C000012502E0012500E00125284670BD0000BF
:10A2D000640000206000002070477047704770479E
:10A2E00070477047014691F83600704710B5044634
:10A2F0002068006800F0010050B12068806800F01C
:10A30000010028B10120216848602046FFF7E6FFE0
:10A3100020680068C0F3400050B120688068C0F336
:10A32000400028B10220216848602046FFF7D4FF92
:10A3300020680068C0F3800050B120688068C0F3D6
:10A34000800028B1042021684860204600F0E3F82E
:10A3500020680068C0F3C00050B120688068C0F376
:10A36000C00028B10820216848602046FFF7B7FFE9
:10A3700020680068C0F3001050B120688068C0F306
:10A38000001028B11020216848602046FFF7A5FF83
:10A3900020680068C0F3401050B120688068C0F3A6
:10A3A000401028B12020216848602046FFF799FF1F
:10A3B00020680068C0F3801050B120688068C0F346
:10A3C000801028B14020216848602046FFF788FFB0
:10A3D00010BD000070B504460CB9012070BD606866
:10A3E000012800D100BF4FF6FF716069884200D09C
:10A3F00000BF606800B900BF94F8360028B900209B
:10A4000084F83500204600F04DF8022084F836002C
:10A410002068C5686068012801D125F006054FF65F
:10A42000FF716069884201D025F46045606808B911
:10A4300025F0D80519480540D4E901010843216AEF
:10A440000843616A0843A16A08430543606818B974
:10A45000E1692069084305436068012801D1E0688B
:10A4600005434FF6FF716069884203D0D4E90510B7
:10A47000084305432068C56009492068884205D122
:10A48000D4E90B0108432168086202E02168E06A10
:10A490000862012084F8360000209FE7F8F119FFD8
:10A4A000007C004038B504460D492068884215D12B
:10A4B00040054FF0B041896D01434FF0B0429165C6
:10A4C0001146896D0140009100BF00BF0022114676
:10A4D0002F2000F08FF82F2000F06AF838BD000020
:10A4E000007C004010B50446022084F83600204667
:10A4F00002F0EAFE2046FFF7F5FE032800D110BD6A
:10A500002068C06820F400202168C860012084F819
:10A5100036000020F3E7704708B5032000F0A8F8E4
:10A520004FF400204FF0B041096D01434FF0B042AD
:10A5300011651146096D0140009100BF00BF002266
:10A5400011466FF00B0000F055F8002211466FF035
:10A550000A0000F04FF8002211466FF0090000F0E9
:10A5600049F800221146501F00F044F8002211461D
:10A57000101F00F03FF800221146901E00F03AF83C
:10A5800000221146501E00F035F808BD10B50146F6
:10A590000846002807DB00F01F0301229A40034B06
:10A5A000440943F8242000BF10BD000080E200E011
:10A5B00001460846002809DB00F01F0301229A40EB
:10A5C00043099B0003F1E023C3F8002100BF70475B
:10A5D00010B501460846002807DB00F01F030122E2
:10A5E0009A40034B440943F8242000BF10BD0000EB
:10A5F00000E200E02DE9F05F80460D46164605F0CA
:10A60000A5FC074639462A46334601F00700C0F14B
:10A61000070ABAF1040F02D94FF0040A01E0C0F1B1
:10A62000070AD14600F1040ABAF1070F02D24FF02F
:10A63000000A01E0A0F1030AD4464FF0010A0AFA29
:10A6400009FAAAF1010A0AEA020A0AFA0CFA4FF018
:10A65000010B0BFA0CFBABF1010B0BEA030B4AEA03
:10A660000B042146404605F079FCBDE8F09F000050
:10A6700000BF00F00702064B19684FF6FF031940B0
:10A68000044B0B4343EA0221014B196000BF7047A2
:10A690000CED00E00000FA050D49096821F0070102
:10A6A000891C0B4A11600B49096841F00401094AF1
:10A6B0001160012801D130BF02E040BF20BF20BFA0
:10A6C0000449096821F00401024A11607047000042
:10A6D0000004005810ED00E00248006800F4C0607B
:10A6E000704700000004005801462B48006820F025
:10A6F0000E000A681043284A10604FF48030274A41
:10A7000012688243254B1A6000BF00BF234A4032C3
:10A7100012688243214B40331A6000BF00BF1F4ABA
:10A720007C3A126882431D4B7C3B1A6000BF00BF1D
:10A730001A1F126882431B1F1A6000BF486800F48A
:10A740008030B0F5803F07D15801144A12680243A7
:10A75000124B1A6000BF00BF087900F0010050B131
:10A760004FF480300D4A803A126802430B4B803B15
:10A770001A6000BF00BF087900F00200022809D16A
:10A78000C003064A7C3A12680243044B7C3B1A60C1
:10A7900000BF00BF00207047040400588008005824
:10A7A0000348006820F48070014908607047000089
:10A7B000000400580348006840F4807001490860B4
:10A7C00070470000000400580348006840F0010092
:10A7D00001490860704700000404005810B50C4897
:10A7E000006800F4807018B9FFF7E4FF012400E06E
:10A7F000002400BF0748006820F080704FF0B0418F
:10A80000C1F8900000BF012C01D1FFF7C9FF10BDB6
:10A81000000400589000005830B585B0054601206E
:10A8200002F01BFB04200090022001900320039003
:10A8300000200290049069464FF09040FFF7BEF868
:10A840000D48006800F4807018B9FFF7B3FF0124C9
:10A8500000E000240948006820F0407045F0807155
:10A8600008434FF0B041C1F89000012C01D1FFF72F
:10A8700097FF05B030BD000000040058900000585C
:10A880002DE9F04704460025A946207800F0400055
:10A8900040282CD1206B90B1B0F5800F06D0B0F5D8
:10A8A000000F12D0B0F5400F10D10DE04FF0B040C6
:10A8B000C06840F480304FF0B041C86008E0201D0F
:10A8C00003F099F9054603E002E001E0012500BF2D
:10A8D00000BF5DB9206BA649096821F4400101431E
:10A8E0004FF0B042C2F8881000BF00E0A9462088AF
:10A8F00000F40060B0F5006F57D100BF9C480830ED
:10A90000006800F440700746206CB8424BD0FFF757
:10A9100051FF67B9206C96490831096821F44071EC
:10A9200001434FF0B042C2F8901000BF39E09048A8
:10A930000830D0F8008000BF4FF0B040D0F8900051
:10A9400040F480308A490831086000BF00BF4FF0F2
:10A95000B040D0F8900020F48030086000BF28F4A8
:10A960004070216C40EA01084FF0B040C0F8908080
:10A9700000BFD0F8900000F0010088B1FFF706F9A1
:10A98000064608E0FFF702F9801B41F28831884251
:10A9900001D9032503E002F07FFB0128F2D100BFBB
:10A9A00000BFA94600E0A94600BF207800F00100E2
:10A9B00058B1A0696E49096821F0030101434FF0C5
:10A9C000B042C2F8881000BF00BF207800F002003B
:10A9D00002280BD1E0696649096821F4406101430E
:10A9E0004FF0B042C2F8881000BF00BF207800F0DE
:10A9F0001000102802D1A06A02F020FC207800F09C
:10AA00002000202802D1E06A02F018FC207800F033
:10AA10000400042802D1206A02F0FCFB207800F038
:10AA20000800082802D1606A02F0F4FB208800F4D4
:10AA30008070B0F5807F1AD1676B384602F0DEFB7C
:10AA400000BF606BB0F1006F07D14FF0B040C0683D
:10AA500040F080704FF0B041C860606BB0F1806F23
:10AA600005D1201D03F00EF9054605B1A946208841
:10AA700000F40070B0F5007F25D100BFA06BB0F1ED
:10AA8000804F05D0A06BB0F1004F01D0A06B18B97A
:10AA9000A06B02F0EFFB09E0A06B20F080570020D4
:10AAA00002F0E8FB384602F0A9FB00BF00BFA06B34
:10AAB000B0F1C05F07D14FF0B040C06840F0807087
:10AAC0004FF0B041C860208800F48060B0F5806F1E
:10AAD0001ED1E06B2649096821F0405101434FF037
:10AAE000B042C2F8881000BFE06BB0F1005F05D142
:10AAF0001046C06840F480301146C860E06BB0F189
:10AB0000805F05D1201D03F004F9054605B1A94673
:10AB1000208800F48050B0F5805F0CD1606C14493F
:10AB20000C31096821F4404101434FF0B042C2F8B2
:10AB3000941000BF00BF208800F40050B0F5005F03
:10AB400013D1E06C4FF0B041496A21F0300101436C
:10AB50004FF0B042516200BFA06C1146496A21F02B
:10AB600003010143516200BF00BF4846BDE8F087C2
:10AB7000880000582DE9F04104460E4614B9012022
:10AB8000BDE8F0819848006800F00700B04217D295
:10AB90009548006820F00700304393490860FEF7AD
:10ABA000F5FF054606E0FEF7F1FF401B022801D93C
:10ABB0000320E5E78C48006800F00700B042F2D1BE
:10ABC000207800F0020002281DD1A0684FF0B041AB
:10ABD000896821F0F00101434FF0B042916000BF5D
:10ABE000FEF7D4FF054606E0FEF7D0FF401B022823
:10ABF00001D90320C4E700BF4FF0B0408068C0F324
:10AC000000400028F0D0207800F0200020281CD13F
:10AC100060697649096821F0F00101434FF0B042C4
:10AC2000C2F8081100BFFEF7B1FF054606E0FEF7C7
:10AC3000ADFF401B022801D90320A1E700BF6B48EC
:10AC40000068C0F340400028F1D0207800F04000B8
:10AC500040281DD1A0696549096821F00F0141EA2A
:10AC600010114FF0B042C2F8081100BFFEF78EFF7E
:10AC7000054606E0FEF78AFF401B022801D90320A3
:10AC80007EE700BF59480068C0F300400028F1D0BB
:10AC9000207800F0040004281DD1E0684FF0B04196
:10ACA000896821F4E06101434FF0B042916000BF38
:10ACB000FEF76CFF054606E0FEF768FF401B022822
:10ACC00001D903205CE700BF4FF0B0408068C0F3BB
:10ACD00040400028F0D0207800F0080008281ED15D
:10ACE0002169C8004FF0B041896821F460510143E7
:10ACF0004FF0B042916000BFFEF748FF054606E006
:10AD0000FEF744FF401B022801D9032038E700BFAB
:10AD10004FF0B0408068C0F380400028F0D0207829
:10AD200000F0010098B36068022804D102F080F9B5
:10AD3000A8B9012024E76068032804D102F057FA7B
:10AD400068B901201CE7606820B902F0FFF930B94A
:10AD5000012015E702F07AF908B9012010E76068D0
:10AD60004FF0B041896821F0030101434FF0B04238
:10AD7000916000BFFEF70AFF054609E0FEF706FFF7
:10AD8000401B41F28831884202D90320F8E605E0F1
:10AD900002F030F96168B0EB810FEFD11248006822
:10ADA00000F00700B04217D90F48006820F00700F4
:10ADB00030430D490860FEF7E9FE054606E0FEF760
:10ADC000E5FE401B022801D90320D9E606480068A9
:10ADD00000F00700B042F2D103F090FDFEF7E2FE72
:10ADE0000746FFF74FFACBE600400058080100582D
:10ADF00010B500F033F84FF0B041896801F0F00170
:10AE00000909034A52F82110B0FBF1F010BD00000F
:10AE1000B0F0010810B5FFF7EBFF4FF0B0418968C3
:10AE200001F4E061090A034A12F8211001F01F0140
:10AE3000C84010BDF0F0010810B5FFF7D9FF4FF082
:10AE4000B041896801F46051C90A034A12F821101F
:10AE500001F01F01C84010BDF0F001082DE9F041DC
:10AE600002F0C8F806463EB902F067F9C0F30310D5
:10AE7000234951F820403FE0042E01D1214C3BE012
:10AE8000082E07D102F0CEF8012801D11D4C33E085
:10AE90001D4C31E002F09FF90746012F0FD0022F21
:10AEA00002D0032F0AD101E0164D10E002F0BAF8EB
:10AEB000012801D1134D00E0134D08E000BF02F05E
:10AEC0003CF9C0F303100E4951F8205000BF00BFF9
:10AED00002F087F968434FF0B041C96801F0700192
:10AEE000012202EB1111B0FBF1F14FF0B040C0684C
:10AEF00002EB5070B1FBF0F42046BDE8F081000099
:10AF000010F101080024F4000048E8012DE9F041A7
:10AF1000044614B90120BDE8F081207800F020003B
:10AF200020286ED102F066F8064602F054F9074672
:10AF30001EB10C2E2FD1012F2DD102F007F918B11F
:10AF4000E06908B90120E6E702F0F7F8616A884293
:10AF50000CD2606A02F07CFF08B10120DBE7606A76
:10AF600002F005F9206A02F0F7F80BE0606A02F0DF
:10AF7000FEF8206A02F0F0F8606A02F069FF08B19A
:10AF80000120C8E703F0BAFCF8480068FFF77AF937
:10AF900080B30120BFE7E069B8B102F0C5F8FEF761
:10AFA000F5FD054606E0FEF7F1FD401B022801D93C
:10AFB0000320B0E702F0CAF80028F4D0606A02F07B
:10AFC000D6F8206A02F0C8F81AE000BF4FF0B0408F
:10AFD000006820F001004FF0B041086000BFFEF7AC
:10AFE000D5FD054608E0FEF7D1FD401B022803D938
:10AFF000032090E704E004E002F0A8F80028F2D172
:10B0000000BF207800F0010000285BD001F0F2FFC3
:10B01000064602F0E0F80746082E03D00C2E08D1B1
:10B02000032F06D102F004F878B3606868BB0120F2
:10B0300071E700BF6068B0F5803F02D101F0E9FF21
:10B040001CE06068B0F5A02F0CD100BF4FF0B040FD
:10B05000006840F480204FF0B041086000BF01F06C
:10B06000D8FF0BE000BF4FF0B040006820F4803004
:10B070004FF0B041086000BF01F0C2FF00BF606840
:10B0800080B1FEF783FD054607E01AE0FEF77EFD7E
:10B09000401B642801D903203DE701F0C9FF0028C7
:10B0A000F4D00EE0FEF772FD054606E0FEF76EFDF9
:10B0B000401B642801D903202DE701F0B9FF0028C7
:10B0C000F4D100BF207800F0020002284FD101F037
:10B0D00091FF064602F07FF80746042E03D00C2E9F
:10B0E0000CD1022F0AD101F0B1FF18B1E06808B904
:10B0F000012010E7206901F0AFFF37E0E068E0B120
:10B1000000BF4FF0B040006840F480704FF0B04195
:10B11000086000BFFEF73AFD054606E0FEF736FD83
:10B12000401B022801D90320F5E601F08FFF00281B
:10B13000F4D0206901F090FF18E000BF4FF0B0405C
:10B14000006820F480704FF0B041086000BFFEF747
:10B150001DFD054606E0FEF719FD401B022801D93A
:10B160000320D8E601F072FF0028F4D100BF207858
:10B1700000F00800082804D0207800F01000102803
:10B1800052D16069F0B3207800F0100010284CD143
:10B1900001F0AEFF80B901F09FFFFEF7F7FC054616
:10B1A00006E0FEF7F3FC401B022801D90320B2E6BB
:10B1B00001F09EFF0028F4D000BF6D48006840F009
:10B1C00004004FF0B041C1F8940000BFFEF7DEFC70
:10B1D000054606E0FEF7DAFC401B032801D90320F0
:10B1E00099E601F099FF0028F4D0A0696049096848
:10B1F00021F4706141EA00214FF0B042C2F894108E
:10B2000000BF00E031E001F05BFFFEF7BFFC054648
:10B2100006E0FEF7BBFC401B022801D903207AE6BA
:10B2200001F066FF0028F4D141E001F055FFFEF780
:10B23000ADFC054606E0FEF7A9FC401B022801D93B
:10B24000032068E601F054FF0028F4D001F058FF15
:10B2500006E0FEF79BFC401B032801D903205AE6B9
:10B2600001F05AFF0028F4D121E001F049FFFEF778
:10B270008DFC054606E0FEF789FC401B032801D93A
:10B28000032048E601F048FF0028F4D101F018FF40
:10B29000FEF77CFC054606E0FEF778FC401B022822
:10B2A00001D9032037E601F023FF0028F4D12078EC
:10B2B00000F00400042870D12E48006800F480706B
:10B2C00090B9FFF777FAFEF761FC054606E0FEF756
:10B2D0005DFC401B022801D903201CE625480068BC
:10B2E00000F480700028F2D000BFA068012802D1CD
:10B2F00001F0BEFE25E0A06805280DD100BF1C4866
:10B30000001F006840F004004FF0B041C1F8900009
:10B3100000BF01F0ADFE14E000BF1548001F00683B
:10B3200020F001004FF0B041C1F8900000BF00BF15
:10B330000846D0F8900020F00400C1F8900000BF4B
:10B3400000BF00BFA068B8B1FEF720FC054608E0CA
:10B35000FEF71CFC401B41F28831884201D90320D2
:10B36000D9E501F091FE0028F2D016E0600000203F
:10B370009400005800040058FEF708FC054608E059
:10B38000FEF704FC401B41F28831884201D90320BA
:10B39000C1E501F079FE0028F2D1207800F04000EC
:10B3A000402834D1A06AC8B100BF7F48006840F08F
:10B3B00001004FF0B041C1F8980000BFFEF7E6FB76
:10B3C000054606E0FEF7E2FB401B022801D90320F8
:10B3D000A1E501F033FE0028F4D018E000BF724868
:10B3E000006820F001004FF0B041C1F8980000BFA4
:10B3F000FEF7CCFB054606E0FEF7C8FB401B022823
:10B4000001D9032087E501F019FE0028F4D1E06A94
:10B4100000286ED001F0EEFD07464FF0B040C66840
:10B42000E06A022870D106F00301206B814218D136
:10B4300006F07001606B814213D1C6F30621A06B48
:10B4400088420ED106F47811E06B814209D106F0F2
:10B450006061206C814204D106F06041606C8142E1
:10B4600053D00C2F4ED04FF0B040006800F08060F9
:10B4700008B101204FE501F09CFEFEF787FB054671
:10B4800006E0FEF783FB401B022801D9032042E5BA
:10B490004FF0B040006800F000700028F1D1D4E90E
:10B4A0000C010843A16B40EA0120E16B0843216CC9
:10B4B0000843616C08434FF0B041C9683B4A1140F2
:10B4C00008434FF0B041C86001F07CFE4FF0B0403F
:10B4D000C06840F080504FF0B041C860FEF756FBA6
:10B4E000054607E0FEF752FB401B022802D9032065
:10B4F00011E557E04FF0B040006800F00070002800
:10B50000F0D04EE0012006E522E04FF0B0400068A8
:10B5100000F0007098BB01F055FE4FF0B040C068DD
:10B5200040F080504FF0B041C860FEF72FFB054659
:10B5300006E0FEF72BFB401B022801D90320EAE4BA
:10B540004FF0B040006800F000700028F1D028E013
:10B550000C2F24D001F02DFE4FF0B040C06820F039
:10B5600003004FF0B041C8600846C0681049084069
:10B570004FF0B041C860FEF709FB054607E010E058
:10B58000FEF704FB401B022801D90320C3E44FF05F
:10B59000B040006800F000700028F1D101E0012007
:10B5A000B9E400BF0020B6E4980000588C80C111B7
:10B5B000FFFFFEEE014600BF91F82000012801D1F7
:10B5C00002207047012081F8200000BF022081F88E
:10B5D000210000BFCA200A68506253200A685062E6
:10B5E00000BF0868806840F020000A68906000BFD3
:10B5F000FF200A68506200BF012081F8210000BFCF
:10B60000002081F8200000BF00BFDAE7704700008B
:10B6100010B504462068C068C0F3802050B12046B1
:10B62000FFF7F4FF2068C06800F0800060F49060CD
:10B630002168C8604FF4002002490860012084F8A6
:10B64000210010BD0C08005810B504460CF0D0FDC8
:10B6500010BD70B504460E4600BF94F820000128C6
:10B6600001D1022070BD012084F8200000BF02201B
:10B6700084F8210000BFCA20216848625320216855
:10B68000486200BFB6F5807F2BD12068806820F427
:10B690008070216888602068806820F4805021686C
:10B6A0008860FEF773FA054614E0FEF76FFA401B58
:10B6B000B0F57A7F0ED900BFFF202168486200BF35
:10B6C000032084F8210000BF002084F8200000BF80
:10B6D0000320C7E72068C06800F001000028E4D01C
:10B6E0002AE02068806820F4007021688860206863
:10B6F000806820F4005021688860FEF747FA05460C
:10B7000014E0FEF743FA401BB0F57A7F0ED900BF74
:10B71000FF202168486200BF032084F8210000BF99
:10B72000002084F8200000BF03209BE72068C06849
:10B73000C0F340000028E4D000BFFF202168486229
:10B7400000BF012084F8210000BF002084F8200001
:10B7500000BF00BF86E7000070B505460B461646E1
:10B76000286840680E4900EA0104200CD870C4F330
:10B770000420587004F03F009870C4F342301870F1
:10B780005EB9D87802F0ACFBD870587802F0A8FB0C
:10B790005870987802F0A4FB9870002070BD0000EB
:10B7A0003FFFFF0070B504460B4616462068806ACE
:10B7B000586020680069C0F30E0098602068006837
:10B7C0000F4900EA0105C5F305401870C5F30620CE
:10B7D000587005F07F00987005F48000000CD87058
:10B7E0005EB9187802F07CFB1870587802F078FB8C
:10B7F0005870987802F074FB9870002070BD0000BB
:10B800007F7F7F0010B504460CB9012010BD94F86D
:10B81000210028B9002084F82000204600F06CF8B0
:10B82000022084F8210000BFCA202168486253200A
:10B830002168486200BF204602F06AFB48B100BFA1
:10B84000FF202168486200BF042084F82100012005
:10B85000DCE7206880682749084021688860216902
:10B8600060680843A1690843216889680843216822
:10B8700088602168E068086120680169208941EAE0
:10B880000040216808612068C06820F080002168BD
:10B89000C8602068C06C20F003002168C86461693A
:10B8A000E06908432168C96C08432168C8642068BE
:10B8B000806800F0200090B9204600F065FA70B171
:10B8C00000BFFF202168486200BF042084F82100E7
:10B8D00000BF002084F8200000BF012096E700BFD1
:10B8E000FF202168486200BF012084F82100002069
:10B8F0008CE70000BFFF8FFF10B5044601F05CFB32
:10B90000002211460320FEF775FE0320FEF750FECD
:10B9100010BD00002DE9F04704460D46914600BFDA
:10B9200094F82000012802D10220BDE8F087012010
:10B9300084F8200000BF022084F82100B9F1000F34
:10B940002AD12068806800F0400000B102E00020A9
:10B95000E87000BFE86900B900E000BF287802F095
:10B96000C9FA4FEA004A687802F0C4FA4AEA002AA3
:10B97000A87802F0BFFA4AEA000AE8784AEA004AE0
:10B9800095F8200002F0B6FA4AEA0060E969084337
:10B99000696940EA01071FE02068806800F0400004
:10B9A00000B102E00020E87000BFE86900B900E0E3
:10B9B00000BF28780004697840EA0120A97808438C
:10B9C000E97840EA014095F8201040EA0160E96911
:10B9D0000843696940EA0107A969686840EA010803
:10B9E00000BFCA202168486253202168486200BF16
:10B9F000686AB0F5807F3ED12068806820F480704E
:10BA0000216888602068C06800F0800060F4C07021
:10BA10002168C860FEF7BAF8064614E0FEF7B6F8EB
:10BA2000801BB0F57A7F0ED900BFFF2021684862E5
:10BA300000BF032084F8210000BF002084F820000C
:10BA400000BF032071E72068C06800F001000028F3
:10BA5000E4D02068C7612068C0F84480206880680E
:10BA600040F48070216888602068806840F48050CD
:10BA7000216888603DE02068806820F400702168BB
:10BA800088602068C06800F0800060F42070216841
:10BA9000C860FEF77BF8064614E0FEF777F8801BD7
:10BAA000B0F57A7F0ED900BFFF202168486200BF41
:10BAB000032084F8210000BF002084F8200000BF8C
:10BAC000032032E72068C068C0F340000028E4D0BB
:10BAD000206807622068C0F848802068806840F4C9
:10BAE0000070216888602068806840F400502168F8
:10BAF00088600E48006840F400300C4908600B482C
:10BB00008038006840F4003008498039086000BF80
:10BB1000FF202168486200BF012084F8210000BF97
:10BB2000002084F8200000BF00BFFEE68008005817
:10BB30002DE9F04104460D46164600BF94F820005A
:10BB4000012802D10220BDE8F081012084F8200004
:10BB500000BF022084F821004EB9687800F0100080
:10BB6000102804D1687800F0EF000A30687096B9A8
:10BB7000E87802F0BFF94FEA0048687802F0BAF9B5
:10BB800048EA0028A87802F0B5F948EA00082878C1
:10BB900048EA403709E0E8780004697840EA012083
:10BBA000A9780843297840EA413700BFCA202168B4
:10BBB000486253202168486200BF204602F0A8F97D
:10BBC00070B100BFFF202168486200BF042084F8E4
:10BBD000210000BF002084F8200000BF0120B2E750
:10BBE00018483840216848602068C06820F080000C
:10BBF0002168C8602068806800F0200090B9204665
:10BC000000F0C2F870B100BFFF202168486200BF99
:10BC1000042084F8210000BF002084F8200000BF29
:10BC2000012090E700BFFF202168486200BF01208B
:10BC300084F8210000BF002084F8200000BF00BF6E
:10BC400081E700003FFFFF002DE9F04104460D466B
:10BC5000174600BF94F82000012802D10220BDE859
:10BC6000F081012084F8200000BF022084F8210028
:10BC7000DFB92068806800F0400000B102E00020D9
:10BC8000E87000BF287802F035F94FEA004868787C
:10BC900002F030F948EA0028A87802F02BF948EAC7
:10BCA0000008E87848EA004612E02068806800F062
:10BCB000400000B102E00020E87000BF28780004D6
:10BCC000697840EA0120A9780843E97840EA01460A
:10BCD00000BFCA202168486253202168486200BF23
:10BCE000204602F015F970B100BFFF2021684862BC
:10BCF00000BF042084F8210000BF002084F8200049
:10BD000000BF0120ABE71F48304021680860206871
:10BD1000806820F4802021688860D5E90301084309
:10BD2000216889680843216888602068C06820F01D
:10BD300080002168C8602068806800F0200090B909
:10BD4000204600F021F870B100BFFF202168486252
:10BD500000BF042084F8210000BF002084F82000E8
:10BD600000BF01207BE700BFFF202168486200BFC1
:10BD7000012084F8210000BF002084F8200000BFCB
:10BD800000BF6CE77F7F7F0070B504462068C06805
:10BD900020F0A0002168C860FDF7F8FE054607E026
:10BDA000FDF7F4FE401BB0F57A7F01D9032070BD8A
:10BDB0002068C06800F020000028F1D00020F6E7DD
:10BDC0004FF0E020006940F002004FF0E0210861F0
:10BDD000704710B504460CB9012010BD022084F84C
:10BDE0005D002068006820F040002168086020465F
:10BDF00000F06AF80020206684F85D0000BF84F837
:10BE00005C0000BF00BFE8E770B504460CB9012034
:10BE100070BD606A00B900BF0021A16294F85D00A6
:10BE200028B9002084F85C00204600F099F8022030
:10BE300084F85D002068006820F0400021680860F8
:10BE4000E068B0F5E06F01D9002501E04FF48055BE
:10BE5000E068B0F5706F05D0E068B0F5E06F01D034
:10BE60000021A162206B40B9E068B0F5E06F02D913
:10BE70000221216301E001212163D4E9010108438A
:10BE80002169084361690843218B01F4007108436B
:10BE9000E1690843216A0843A16A084321680860F0
:10BEA0000421A06901EA1040616A0843616B0843FC
:10BEB000E16808432843216848600020206601208B
:10BEC00084F85D000020A3E770B5054600242349EF
:10BED0002868096888420AD14FF480504FF0B04179
:10BEE000096E81434FF0B042116600BF01E006F0D9
:10BEF000F7FAC4EBC402194B03EB021292F8682064
:10BF000002F00F0301229A40C4EBC403134E06EB68
:10BF1000031393F86A3003F00F060123B3401A436A
:10BF2000C4EBC4030D4E06EB031393F86C3003F01F
:10BF30000F060123B34042EA0301C4EBC402074BDE
:10BF400003EB021292F8682002F0F0024FF09043E7
:10BF500003EB8210FDF776FC70BD00002402002088
:10BF600030B587B00446214920680968884239D134
:10BF70001E4890F8680000F0F0004FF0904101EB8F
:10BF8000801514221A4902A8FBF760FA174890F8A6
:10BF9000680000F00F0101208840144991F86A10F0
:10BFA00001F00F02012191400843104991F86C10F3
:10BFB00001F00F02012191400843029002A9284696
:10BFC000FDF7FCFC4FF480504FF0B041096E014387
:10BFD0004FF0B04211661146096E0140019100BF59
:10BFE00000BF01E006F07CFA07B030BD240200205B
:10BFF00064F20108704770B504462546681EB0F12A
:10C00000807F01D301200FE0681E4FF0E0214861DE
:10C010000F214FF0FF3003F0A1FF00204FF0E0218F
:10C02000886107200861002070BD10B5FFF7E2FFAE
:10C0300010BD4FF0E020006920F002004FF0E02139
:10C040000861704770477047704710B504460CB9D7
:10C05000012010BD2420C4F880002068006820F072
:10C06000010021680860002021680860216848609C
:10C0700021688860204600F04FF900208034A060DD
:10C0800020606060803C00BF84F87C0000BF00BF7F
:10C09000DFE770472DE9F04704462068C56920684E
:10C0A00006682068876840F60F0005EA0008B8F1C6
:10C0B000000F0FD105F0200060B106F0200010B98C
:10C0C00007F0805030B1E06E10B12046E16E884735
:10C0D000BDE8F087B8F1000F7ED06E48384018B93F
:10C0E0006D4830400028F7D005F0010058B106F443
:10C0F000807040B1012021680862D4F8880040F0C7
:10C100000100C4F8880005F0020058B107F00100F2
:10C1100040B1022021680862D4F8880040F0040091
:10C12000C4F8880005F0040058B107F0010040B1E0
:10C13000042021680862D4F8880040F00200C4F8A6
:10C14000880005F0080070B106F0200010B95148D1
:10C15000384040B1082021680862D4F8880040F0D7
:10C160000800C4F8880005F4006060B106F0806043
:10C1700048B14FF4006021680862D4F8880040F0AC
:10C180002000C4F88800D4F88800002844D005F0C6
:10C19000200050B106F0200010B907F0805020B107
:10C1A000E06E10B12046E16E8847D4F88890206890
:10C1B000806800F04000402802D009F0280028B331
:10C1C000204602F069FE2068806800F040004028A8
:10C1D00018D12068806800E01FE020F0400021684E
:10C1E0008860A06F50B12D48A16F8863A06FFDF7E4
:10C1F000DBF888B1A06F816B88470DE02046FFF720
:10C2000048FF09E02046FFF744FF05E02046FFF71E
:10C2100040FF0020C4F888005AE705F4801050B1B0
:10C2200007F4800038B14FF480102168086220467E
:10C23000FFF70AFF4CE705F0800058B106F08000D8
:10C2400010B907F4000028B1206F10B12046216F0B
:10C2500088473DE705F0400030B106F0400018B1D6
:10C26000204602F02DFE33E705F4000030B106F061
:10C27000804018B12046FFF7E6FE29E705F0807000
:10C2800030B106F0004018B12046FFF7DBFE1FE793
:10C2900000BF1DE7010000102001000481EE00082E
:10C2A00010B504460CB9012010BDA06900B100E032
:10C2B00000BFD4F8800028B9002084F87C00204614
:10C2C00000F070F82420C4F880002068006820F096
:10C2D000010021680860204602F004FE012800D118
:10C2E000E2E7A06A10B1204602F014FD2068406821
:10C2F00020F49040216848602068806820F02A007F
:10C30000216888602068006840F0010021680860AA
:10C31000204602F07BFDC7E770B5054600242049A2
:10C320002868096888420AD14FF480404FF0B04134
:10C33000096E81434FF0B042116600BF01E006F084
:10C34000CFF804EB840202EB4412154B03EB82029C
:10C3500092F8902002F00F0301229A4004EB84032C
:10C3600003EB44130E4E06EB830393F8923003F075
:10C370000F060123B34042EA030104EB840202EBFF
:10C380004412074B03EB820292F8902002F0F00275
:10C390004FF0904303EB8210FDF754FA70BD00009C
:10C3A000A002002030B587B0044621492068096802
:10C3B000884239D11E4890F8900000F0F0004FF00C
:10C3C000904101EB801514221A4902A8FBF73EF8B0
:10C3D000174890F8900000F00F01012088401449A0
:10C3E00091F8921001F00F02012191400843029050
:10C3F00002A92846FDF7E2FA012200212420FEF7D7
:10C40000F9F82420FEF7D4F84FF480404FF0B04103
:10C41000096E01434FF0B04211661146096E0140AA
:10C42000019100BF00BF01E006F05AF807B030BD2F
:10C43000A002002078F201082DE9F84F04460E46CC
:10C4400017469946D4F8800020285ED106B117B966
:10C450000120BDE8F88F00BF94F87C00012801D1CD
:10C460000220F6E7012084F87C0000BF002054344D
:10C4700060632120E062FDF789FB824627806780A8
:10C48000543CA068B0F5805F04D1206910B9002544
:10C49000B04602E035464FF0000800BF002084F8A7
:10C4A0007C0000BF1DE05346002280212046CDF8CD
:10C4B000009003F007FB08B10320CAE745B9B8F8BC
:10C4C0000000C0F308002168886208F1020803E058
:10C4D0002878216888626D1CB4F85600401EA4F8C4
:10C4E0005600B4F856000028DDD153460022402102
:10C4F0002046CDF8009003F0E5FA08B10320A8E744
:10C500002020C4F880000020A3E70220A1E77047A4
:10C51000704770477047000010B5024800688047B8
:10C5200010BD00007800002010B52021024800F066
:10C53000E6FCFFF7F1FF10BD000C005810B500F04D
:10C540000FF80121014800F0D8FC10BD000C005884
:10C5500010B50121014800F0D7FC10BD000C0058B7
:10C5600008B507E06946064800F0B8FF054900989D
:10C5700009688847024800F0A0FF0028F2D008BDF3
:10C580003C0A03207400002010B50121014800F08E
:10C59000CDFC10BD000C00584FF400700C49096828
:10C5A00001430B4A116000BF00BF0949B439096853
:10C5B0000143074AB43A116000BF40BF20BF00BF2B
:10C5C0000448006840F400400249086000BF70471A
:10C5D000D40800580C04005808B54FF480104FF0F0
:10C5E000B041096D01434FF0B04211651146096D2C
:10C5F0000140009100BF00BF00BF0A48006840F042
:10C6000001000849086000BF00BF0846006840F408
:10C610008030086000BF2C20FDF7CAFF2D20FDF7F9
:10C62000C7FF08BD000C005810B50821054800F0F0
:10C6300066FC0548006880470821024800F076FC47
:10C6400010BD0000000C00585800002010B5044632
:10C650000821084800F061FC30B107480460082157
:10C66000044800F055FC04E0A0470821014800F010
:10C670005DFC10BD000C00585800002010B50221D0
:10C68000144800F067FC40B11248001D0168022008
:10C69000884310B100F036F81AE001210D4800F08F
:10C6A00059FC40B10B48001D01680120884310B1BE
:10C6B000FFF744FF0CE00821064800F04BFC38B1BE
:10C6C0000448001D01680820884308B100F04CF8B8
:10C6D00010BD0000000C005810B50221024800F007
:10C6E0000EFC00F003F810BD000C005810B5034913
:10C6F000C968086802490968884710BD000003201E
:10C700007C00002010B500F007F80221014800F07D
:10C71000F4FB10BD000C005808B507E06946064858
:10C7200000F0DCFE0549009809688847024800F0DF
:10C73000C4FE0028F2D008BD440A03208000002077
:10C7400010B50221014800F0DFFB10BD000C0058BD
:10C7500010B50221034800F0E9FB0221014800F076
:10C76000D7FB10BD000C005810B500F007F80821E9
:10C77000014800F0C2FB10BD000C005808B506E0EF
:10C780006946064800F0AAFE009802F037FA03480E
:10C7900000F093FE0028F3D008BD0000BC01032088
:10C7A00010B50821014800F0AFFB10BD000C005887
:10C7B00010B502211D4800F0B0FB48B91B48001D10
:10C7C00001684FF40030884310B1FFF785FF2BE07C
:10C7D0000221164800F0A1FB48B91448001D016869
:10C7E0004FF40030884310B1FFF776FF1CE00821BA
:10C7F0000E4800F092FB48B90C48001D01684FF448
:10C800000020884310B1FFF70FFF0DE020210748FB
:10C8100000F083FB40B90548001D01684FF400108B
:10C82000884308B1FFF780FE10BD0000000C0058DF
:10C830002DE9F04106460F465A48076000BFCA205E
:10C8400058490968096848625320564909680968C7
:10C85000486200BF5448006840F020005249086018
:10C860000846006800F00700C0F104004F49087056
:10C870004D480830006800F4FE004FF4FE0191FAC4
:10C88000A1F1B1FA81F1C840401C494908704648FD
:10C8900008300068C0F30E00401C46490880084676
:10C8A0000088401E424909784843A0F5A0703F49DE
:10C8B000097820FA01F54FF6FF70854202D33E4910
:10C8C000088001E03C490D804FF400203B49096895
:10C8D00001433A4A116000BF00BF384980310968FE
:10C8E0000143364A8032116000BF002E3ED1012044
:10C8F00033490870801E33490860002408E0002096
:10C9000004EB4401304A02EBC1010873601CC4B25D
:10C91000062CF4DB06202D490870224800680068C8
:10C92000806820F480601F490968096888601D4894
:10C9300000680068C06800F0800060F490601949E9
:10C9400009680968C8604FF400201C490C31086070
:10C950000320FDF71BFE134800680068806840F460
:10C960008040104909680968886009E00D4800683E
:10C970000068C068C0F3802010B10320FDF728FED6
:10C9800000BFFF20074909680968486200BF00220C
:10C9900003210846FDF72EFE0320FDF709FEBDE842
:10C9A000F08100002400002008280040280000201A
:10C9B000290000202A0000202C0000200008005838
:10C9C000A4050020A00500200C0500209C050020E7
:10C9D00000BF07A005F05EFF07A005F05BFF08A001
:10C9E00005F058FF0BA005F055FF00BF05F0F2FD64
:10C9F0001B5B303B33316D004552524F523A2000A1
:10CA0000486172644661756C745F48616E646C6500
:10CA1000720A0D001B5B306D00000000016889691F
:10CA2000C1F3400111B10021026891620168896976
:10CA300001F0010129B90168896941F00101026829
:10CA40009161704770B504460D46164620688069AE
:10CA5000C0F3001000283DD017E0681CA8B1FDF716
:10CA600095F8801BA84200D87DB9606C40F020008A
:10CA70006064202084F84100002084F8420000BF58
:10CA800084F8400000BF012070BD20688069C0F3B9
:10CA900040100028E1D010202168C86120202168C2
:10CAA000C8612046FFF7BAFF206840680A4908407D
:10CAB00021684860606C40F004006064202084F8C5
:10CAC0004100002084F8420000BF84F8400000BF0D
:10CAD0000120D9E70020D7E700E800FE2DE9F84360
:10CAE0000446894615461E46DDE908781948F2B223
:10CAF000002349460090204600F06CF84246394633
:10CB0000204600F0DBF810B10120BDE8F883012ECB
:10CB100003D1E8B2216888620EE0C5F307202168DE
:10CB2000886242463946204600F0C8F808B1012024
:10CB3000EBE7E8B2216888623B46002240212046AC
:10CB4000CDF8008000F060F808B10120DDE700209A
:10CB5000DBE70000002000802DE9F8430446894609
:10CB600015461E46DDE908781948F2B2C302494667
:10CB70000090204600F02EF842463946204600F04C
:10CB80009DF810B10120BDE8F883012E03D1E8B271
:10CB9000216888620EE0C5F307202168886242465A
:10CBA0003946204600F08AF808B10120EBE7E8B2E8
:10CBB000216888623B46002280212046CDF8008013
:10CBC00000F022F808B10120DDE70020DBE70000DB
:10CBD00000200080F0B5059C05686D684FF4806604
:10CBE00006EA545666F0FC2646F4C046B543C1F347
:10CBF00009064FF47F0707EA02473E431E432643D8
:10CC0000354306687560F0BD2DE9F04104460E46D7
